:100000000C9460030C94390C0C947D030C947D03C8
:100010000C947D030C947D030C947D030C947D0360
:100020000C947D030C947D030C947D030C947D0350
:100030000C947D030C947D030C947D030C947D0340
:100040000C9487030C947D030C947D030C947D0326
:100050000C947D030C947D030C947D030C947D0320
:100060000C947D030C947D030C947D030C947D0310
:1000700000000000005C00000C000C007C287C28C4
:1000800058DC68002410480028542840000C000068
:10009000007884008478000054385400107C1000EC
:1000A00080400000101010000040000060100C00A4
:1000B00038543800487C40004864580044542C00B0
:1000C0001C107C005C5424003854240064140C0080
:1000D00068542C0048543800004800008048000054
:1000E0001028440028282800442810000454080040
:1000F00038445C00781478007C5428003844280088
:100100007C4438007C5444007C140400384474005F
:100110007C107C00447C440020403C007C106C003F
:100120007C4040007C187C0078103C00384438004B
:100130007C1408003844B8007C146800485424003B
:10014000047C04007C407C003C603C007C307C00F3
:100150006C106C000C700C0064544C00007C44006B
:100160000C106000447C00000804080080808000BF
:1001700000040800304878007C48300030484800CF
:1001800030487C00306850001078140090A8780047
:100190007C08700050744000808074007C106800FF
:1001A000447C4000781078007808700030483000B7
:1001B000F82810003048F80078100800505828003F
:1001C000083C4800384078003840380078207800F3
:1001D0004830480098A0780048685800107884009B
:1001E000007C00008478100008040804000000006F
:1001F0000000005F00000007000700147F147F1458
:10020000242A7F2A1223130864623649552250009B
:1002100005030000001C2241000041221C00082AA6
:100220001C2A0808083E080800503000000808088A
:100230000808006060000020100804023E51494593
:100240003E00427F400042615149462141454B31C9
:100250001814127F1027454545393C4A4949300159
:10026000710905033649494936064949291E0036B0
:100270003600000056360000000814224114141401
:10028000141441221408000201510906324979412F
:100290003E7E1111117E7F494949363E414141223E
:1002A0007F4141221C7F494949417F090901013EA3
:1002B000414151327F0808087F00417F41002040C2
:1002C000413F017F081422417F404040407F0204AB
:1002D000027F7F0408107F3E4141413E7F090909AA
:1002E000063E4151215E7F09192946464949493157
:1002F00001017F01013F4040403F1F2040201F7F00
:100300002018207F631408146303047804036151E8
:1003100049454300007F4141020408102041417FCC
:100320000000040201020440404040400001020479
:100330000020545454787F4844443838444444207E
:10034000384444487F3854545418087E0901020840
:100350001454543C7F0804047800447D400020403D
:10036000443D00007F10284400417F40007C041879
:1003700004787C0804047838444444387C14141409
:1003800008081414187C7C080404084854545420A9
:10039000043F4440203C4040207C1C2040201C3C2A
:1003A0004030403C44281028440C5050503C446499
:1003B000544C44000836410000007F0000004136E4
:1003C000080002010302010000000000000000001C
:1003D000065F5F0600000000070700070700001423
:1003E0007F7F147F7F1400242E6B6B3A120000462F
:1003F0006630180C666200307A4F5D377A48000428
:1004000007030000000000001C3E634100000000E4
:1004100041633E1C000000082A3E1C1C3E2A0808BE
:10042000083E3E0808000000A0E060000000000850
:100430000808080808000000006060000000006074
:1004400030180C060301003E7F594D7F3E000042EC
:10045000427F7F40400000627359496F660000226E
:100460006349497F360000181C16137F7F10002750
:100470006745457D3900003C7E4B497930000003DB
:100480006371190F070000367F49497F3600000667
:100490004F49693F1E000000006C6C000000000026
:1004A000A0EC6C00000000081C3663410000001442
:1004B00014141414140000004163361C08000002D8
:1004C0000351590F0600003E7F415D5D1F1E007CF9
:1004D0007E13137E7C0000417F7F49497F36001CDC
:1004E0003E634141632200417F7F41637F1C0041A5
:1004F0007F7F495D416300417F7F491D0103001CEF
:100500003E6341517372007F7F08087F7F000000C7
:10051000417F7F41000000307040417F3F0100413A
:100520007F7F081C776300417F7F41406070007FC0
:100530007F060C067F7F007F7F060C187F7F001CE4
:100540003E6341633E1C00417F7F49090F06001E48
:100550003F21717F5E0000417F7F19396F46002681
:10056000674D597B32000003417F7F410300007FCC
:100570007F40407F7F00001F3F60603F1F00007F83
:100580007F3018307F7F0063771C081C776300077B
:100590004F78784F0700006773594D47637100002B
:1005A0007F7F41410000000103060C18306000000D
:1005B00041417F7F000000080C0603060C08008004
:1005C000808080808080800000030704000000207D
:1005D0007454543C784000413F7F44447C38003898
:1005E0007C44446C280000307848493F7F40003804
:1005F0007C54545C180000487E7F49030200009838
:10060000BCA4A4F87C0400417F7F08047C7800002F
:10061000447D7D4000000040C484FD7D0000004119
:100620007F7F10386C440000417F7F400000007CD9
:100630007C0C180C7C78007C7C04047C78000038EE
:100640007C44447C38000084FCF8A4243C18001846
:100650003C24A4F8FC8400447C78441C1800004826
:100660005C54547424000000043E7F442400003C89
:100670007C40403C7C40001C3C60603C1C00003CDA
:100680007C6030607C3C00446C3810386C44009CCA
:10069000BCA0A0FC7C00004C64745C4C64000008AE
:1006A000083E7741410000000000777700000041DC
:1006B00041773E0808000002030103020301000025
:1006C00011241FBECFEFD4E0DEBFCDBF12E0A0E00B
:1006D000B1E0E8ECF4E202C005900D92AA3CB1074B
:1006E000D9F722E0AAECB2E001C01D92A23FB20706
:1006F000E1F70E9491030C9462120C9400008DE0CB
:1007000083BF81E681BF89B7816089BF08951F9249
:100710000F920FB60F9211240F900FBE0F901F90E3
:100720001895CF92DF92EF92FF920F931F93CF9382
:10073000DF93CDB7DEB764970FB6F894DEBF0FBE78
:10074000CDBF0E94ED060E94FE060E943B070E945C
:100750008B070E94A4070E94D90A0E94360B0E94B0
:100760007F03BE016F5F7F4F81E00E946B0A10E044
:100770000F2EF6E1EF2EF1E0FF2EF02DCE010196C7
:100780006C018EE00E94730881111EC001E0010F10
:100790001F921F93FF92EF92DF92CF920E94DF0D84
:1007A0000E9498080E94740A80E094E10E943F0829
:1007B0000F900F900F900F900F900F908FEF9FEF73
:1007C0000197F1F7102FDDCF90E080E064960FB62F
:1007D000F894DEBF0FBECDBFDF91CF911F910F9177
:1007E000FF90EF90DF90CF9008950E94200704E2E1
:1007F00011E0C0E4D1E00E940D070E945907B82E15
:100800000E9466076C010E9452077C010E944B0700
:10081000DD24DF92CF922B2D0B2C000C330B3F935A
:10082000BF92FF24FF92EF9299279F938F931F937C
:100830000F930E94C90D80E00E94730783E00E941D
:1008400097070E9453080E949B07E82E0E949B076F
:10085000F82E0E949B071F92EF921F92FF921F9209
:100860008F93DF93CF930E94C90D88E00E94730796
:100870008DB79EB742960FB6F8949EBF0FBE8DBF40
:1008800080E49DE0A3E0B0E00197A109B109E1F7A0
:10089000B2CFCF93DF930E94FC0730E020E061E00D
:1008A00070E050C0FC01F595E795F595E795F59555
:1008B000E795F695FE2FEE27F795E795E20FF31FE4
:1008C000FC5EDC01A770BB27EB0102C0CC0FDD1F73
:1008D000AA95E2F7BC2FB095A081AB23A083019627
:1008E0008034910549F1DC019097AA9FF001AB9FFC
:1008F000F00DF00D1124E40FF51FE039F14094F6EE
:10090000FC01F595E795F595E795F595E795F6954D
:10091000FE2FEE27F795E795E20FF31FFC5EDC0153
:10092000A770BB27EB0102C0CC0FDD1FAA95E2F731
:10093000A081AC2BA083D3CF2F5F3F4F2038310550
:1009400009F44CC0C90180549109889FA001899F76
:10095000500D500D112490E080E0C5CF01968034F9
:10096000910559F1FC01B097EE9F9001EF9F300D7A
:10097000300D1124240F351F213E31057CF7FC0179
:10098000F595E795F595E795F595E795F695FE2F9D
:10099000EE27F795E795E60FF71FFC5E9C012770A1
:1009A0003327ED0102C0CC0FDD1F2A95E2F73C2F63
:1009B0003095208123232083D1CF6F5F7F4F603814
:1009C000710589F0CB0180549109889FA001899F0E
:1009D000500D500D112490E080E0C4CF70E060E035
:1009E000A1E0B0E0EFCF80E094E10E943F08DF910A
:1009F000CF910895D0E010E001C0DC2F80EA96E8A6
:100A0000A1E0B0E00197A109B109E1F70E949808BF
:100A1000C1E0CD0F68E571E088E29D2F0E940309D7
:100A200080E094E10E943F08C03438F3C12FE5CF45
:100A3000D09AD89A80E49DE0A3E0B0E00197A109A4
:100A4000B109E1F7D89880E49DE0A3E0B0E0019718
:100A5000A109B109E1F7EDCFC0E008E611E001C05E
:100A6000CF5F1F92CF931F930F930E94C90D0F90DA
:100A70000F900F900F9080E49DE0A3E0B0E001970D
:100A8000A109B109E1F7ECCFCF92DF92EF92FF928B
:100A90000F931F93CF93DF938CE791E09F938F93F6
:100AA0000E94C90D0E94670D6C010E946C0D0F9091
:100AB0000F90D0E0C0E010E000E00F2EF4E9EF2E40
:100AC000F1E0FF2EF02D05C02196C1159CE0D9075D
:100AD000F1F00E94670DFE01FC5E808320812817E3
:100AE00099F399279F938F931F922F93DF93CF931F
:100AF000FF92EF920E94C90D0F5F1F4F8DB79EB7F7
:100B000008960FB6F8949EBF0FBE8DBFDDCFC6010D
:100B10000E946C0DD0E0C0E0F12CE12C0F2EFEEC19
:100B2000CF2EF1E0DF2EF02D05C02196C1159CE0FF
:100B3000D907F1F00E94670DFE01FC5E20812817A5
:100B4000A1F399279F938F931F922F93DF93CF93B6
:100B5000DF92CF920E94C90D8FEFE81AF80A8DB785
:100B60009EB708960FB6F8949EBF0FBE8DBFDDCF1F
:100B7000FF92EF921F930F938CE092E09F938F93DD
:100B80000E94C90D0F900F900F900F900F900F9033
:100B9000DF91CF911F910F91FF90EF90DF90CF9059
:100BA0000895CF93DF93CDB7DEB76E970FB6F89465
:100BB000DEBF0FBECDBF80E00E94730785E00E94BC
:100BC000970790E080E00196803127E29207D9F7FD
:100BD00082E00E94970781E00E94970788E00E94C8
:100BE0007307BE016F5F7F4F81E00E946B0A0F2E7B
:100BF000F0E39F2EF02D0F2EF1E3AF2EF02D812C80
:100C00000F2EF7E6EF2EF2E0FF2EF02DBB24B3946B
:100C1000082D37C0892DF60181936F011F5F1831B0
:100C200039F0812F0E9473088823A1F38A2DF3CF16
:100C3000898E0E9498080E94740A80E094E10E94C4
:100C40003F0810E00DC02F939F93FF92EF920E94F8
:100C5000C90D1F5F0F900F900F900F90183149F042
:100C6000812F0E9473089B2D202F8111ECCF902F94
:100C7000EACF80E49DE0A3E0B0E00197A109B109CB
:100C8000E1F70E945A08CE0101966C0110E0C9CF2D
:100C9000CF93DF930E94FC0760E082E00E941C0873
:100CA0008FEF0E94970780E00E94970780E492E40C
:100CB000AFE0B0E00197A109B109E1F7CEE7D0E0DC
:100CC0008FEF0E9497072197D9F7DF91CF91089571
:100CD000CF93DF9300D000D0CDB7DEB764E1CE0173
:100CE00001960E94800C45EF53E06AE672E0CE0167
:100CF00001960E94940C4AEF54E064E772E0CE0142
:100D000001960E94940C4AEF54E06EE772E0CE0127
:100D100001960E94940C4AEF54E068E872E0CE011C
:100D200001960E94940C4AEF54E062E972E0CE0111
:100D300001960E94940C49E454E06CE972E0CE0103
:100D400001960E94940C8A811F928F9389811F9231
:100D50008F9389EA92E09F938F930E94C90D0F9021
:100D60000F900F900F900F900F9010E010C080E147
:100D70000E947308811123C00E949808612FCE0140
:100D800001960E94B80C80E094E10E943F0880EA3E
:100D900096E8A1E0B0E00197A109B109E1F70E944E
:100DA0005A0884E10E9473088111115082E10E9467
:100DB000730881111F5F1630D0F210E0D8CF612F79
:100DC000CE0101960E94050DD7CF5D9BFECF8CB959
:100DD00008955F9BFECF8CB1089510BC8FE189B957
:100DE00088E18AB98EE880BD69EE76E085EE96E00E
:100DF0000E947E0D08958BB18078089585B7806834
:100E000085BF80B7806280BF0895FB01FC5E808350
:100E100008959C5EFC01808108951092001084E684
:100E200090E00197F1F7A0E0B0E18C91EFEDF2E0F6
:100E300080838C9181838C9182838C9183830895AC
:100E40000E940D07EFEDF2E081818093DE02908138
:100E50009093E3021F929F931F928F9381EB92E0F6
:100E60009F938F930E94C90D0F900F900F900F903A
:100E70000F900F9008958D9A83E48FBD89E18EBD08
:100E80001BBC1ABC0E9420070895E82FF0E0E15235
:100E9000FD4F808108958091DE0281589091E0029B
:100EA000891B08958091DF0281589091E302891B8C
:100EB00008950E944B07823B38F491E08D3408F08E
:100EC00090E0892F8195089581E008950E9452074E
:100ED000823B38F491E08D3408F090E0892F8195C1
:100EE000089581E008958093E40224E030E0A901B0
:100EF00002C0440F551F8A95E2F7CA0128B39CE14E
:100F00009827922B98BB98B38095892388BB089526
:100F10008091E402089587B3806A87BBBE9887B347
:100F20008C6187BB80E58DB98EB18EB908958FB97C
:100F3000779BFECF08951FB8779BFECF8FB10895A2
:100F4000C19A0895C1980895B99A81E00E947307E3
:100F50000E94A2078EEA0E94970781E80E949707E5
:100F60008FEF0E94970784EA0E94970786EA0E9403
:100F7000970781EA0E94970788EC0E94970788EA02
:100F80000E9497078FE30E9497078FEA0E949707B6
:100F9000089581E00E9473070E94A20780E20E94E8
:100FA000970780E00E94970782E20E94970780E0FF
:100FB0000E94970787E00E94970781E20E949707A7
:100FC00080E00E9497078FE70E9497070E94A00782
:100FD00008950F931F93CF930E94C90700E014E078
:100FE000C0EF8C2F0E949707C09501501109C9F7D7
:100FF000CF911F910F910895CF93DF930E94C9075E
:10100000C0E0D4E080E00E9497072197D9F7DF91F4
:10101000CF910895CF93C82F81E00E9473070E945B
:10102000A207C11105C086EA0E949707CF910895D3
:1010300087EA0E949707FACFCF93DF93D82FC62F66
:1010400081E00E9473070E94A20780E20E94970736
:1010500082E00E9497078D2F8F70806B0E94970708
:101060008C2F8F700E9497078C2F82958F708061D4
:101070000E9497070E94A007DF91CF9108950F93D8
:101080001F93CF93DF938C010E94C907E8011C5F77
:1010900089910E949707C017D107D1F7DF91CF91AF
:1010A0001F910F91089590E080E0019681329105A3
:1010B000E1F70895CF93DF9380E00E94730784E007
:1010C0000E9497070E949B07C5EED2E088830E948A
:1010D0009B0789830E949B078A8388E00E9473078D
:1010E000DF91CF910895E82FE695E695E695F0E03B
:1010F000EB51FD4F877021E030E0A90102C0440FA1
:10110000551F8A95E2F7CA01908189230895E5EE7B
:10111000F2E080819181890F9281890F08959093E7
:10112000070180930601609305014093040108952F
:10113000E0910601F09107018091050140E08111E5
:1011400011C0089580E09F012F5F3F4F10828F5F95
:10115000F901909104018917B0F34F5F8091050167
:10116000481728F4809104018111ECCFF6CF08953F
:1011700087EC93E090930101809300017093030149
:10118000609302010895CF93DF93EB012091050155
:10119000A82FB0E0929FA00DB11D112480910601EF
:1011A00090910701A80FB91F888142E051E0811199
:1011B00024C0DF91CF9108958881082E000C990BEF
:1011C0008097389FF001399FF00D1124CF01820FD5
:1011D000911DE0910001F0910101E80FF91FE491E8
:1011E000CD010196EC932F5FFA013081DC012317CA
:1011F00018F3219688818823E1F2FA01308120E0FA
:101200003111DACFF6CF6F927F928F929F92AF9289
:10121000BF92CF92DF92EF92FF920F931F93CF93E3
:10122000DF933B01592F56955695569540910501F0
:10123000282F30E0549F200D311D112440910601CC
:1012400050910701240F351F977080910301689416
:10125000882483F8912C881A9108092F6FEF70E089
:10126000082C02C0759567950A94E2F7092E02C012
:10127000660F771F0A94E2F7B72E88E0A82EA91A06
:10128000D3018C91882309F45FC042E051E0992496
:101290004FC0E301E8800E2C000CFF08D0E2ED1AED
:1012A000F108EC9CF001ED9CF00DFC9CF00D11247C
:1012B0007F01E80EF91EE0910001F0910101EE0DB1
:1012C000FF1DE491F0E0082C02C0F595E7950A9423
:1012D000E2F77F01002E02C0EE0CFF1C0A94E2F739
:1012E000E622FC90EF24ED92E0900501E80EF92E45
:1012F000F11CE20EF31E0A2C02C0F595E7950A9444
:10130000E2F7EB21E701F881EF27E8830196EA0194
:10131000E881CE2ED12C8C159D050CF4BACF2E0F62
:10132000311DDFEF6D1A7D0AF3018081882361F0A2
:10133000DA01EC91CE2ED12CD90190E080E01C1482
:101340001D040CF4A6CFEBCFDF91CF911F910F912D
:10135000FF90EF90DF90CF90BF90AF909F908F90D5
:101360007F906F900895DF92EF92FF920F931F93FB
:10137000CF93DF93B82FD62E292F26952695269525
:10138000309105014091060150910701329F400DB7
:10139000511D1124A72FA695A695A695AF5FA21B58
:1013A00097702FEF30E0F90102C0EE0FFF1F9A9502
:1013B000E2F7FE2E777008E010E0071B110902C06B
:1013C000359527950A95E2F7722FA13009F462C08E
:1013D000861708F078C0082F10E0FA01E00FF11F1F
:1013E0002FEF260F281B0F5F1F4F200F312F311DAE
:1013F000240F351F91918F01015011099F29E80198
:101400009883E217F307B1F7A33008F460C0EB2E1E
:10141000F12C0FEF0D0D0B1B97012F5F3F4F020FAC
:10142000132F111D9FEFA15020910501420F511D57
:10143000BD1550F4FA01EE0DFF1D9A01200F311F6A
:101440009193E217F307E1F7A33068F720910501C4
:1014500030E0BD15B8F4280F311DFA01E20FF31F7B
:101460006150681B862F2F5F3F4F820F932F911D76
:10147000480F591F8191DF011197872B8C93E41737
:10148000F507C1F7DF91CF911F910F91FF90EF907A
:10149000DF9008952E238617A8F7A82FB0E0FA0151
:1014A000EA0FFB1F6150681B11966A0F7B2F711D9D
:1014B000460F571F8191DF011197822B8C93E41700
:1014C000F507C1F7DFCFA33008F0A1CFDBCF209124
:1014D000050130E0C0CFE82FF0E0EE0FFF1FE6532C
:1014E000FD4F718360830895CF92DF92EF92FF9258
:1014F0001F93CF93DF93CAECD2E00F2EFEEDEF2EB9
:10150000F2E0FF2EF02D10E00F2EF2E0CF2EF1E0F2
:10151000DF2EF02D04C01F5FCE15DF0571F069913D
:10152000799161157105B9F3F601918180E0199FF8
:10153000902D11240E940309EECFDF91CF911F91CE
:10154000FF90EF90DF90CF90089582E00E947307A4
:1015500080EC0E94970788E00E9473070895CF935C
:10156000C82F82E00E94730783E00E9497078C2FA8
:101570000E9497070E949B07C82F88E00E9473076C
:101580008C2FCF910895CF93DF93D82FC62F82E071
:101590000E94730782E00E9497078D2F0E94970791
:1015A0008C2F0E94970788E00E947307DF91CF91EC
:1015B00008950E94A50A60E88FE00E94C30A61E4D2
:1015C0008AE20E94C30A61E989E20E94C30A62E0DA
:1015D00088E20E94C30A63E08BE20E94C30A089576
:1015E000CF93813039F0A0F0823081F0833061F404
:1015F000C7E801C0C2E882E00E9473078C2F0E94F6
:10160000970788E00E947307CF910895C4E8F3CF4D
:10161000C1E8F1CFCF9382E00E94730780EA0E9475
:1016200097070E949B07C82F88E00E9473078C2FA2
:10163000CF9108951F93CF93DF93182FD62FC42FE8
:1016400082E00E94730785E00E949707812F0E9425
:1016500097078D2F0E9497078C2F0E94970788E08D
:101660000E947307DF91CF911F91089560E08FE092
:101670000E94C30A8A98929A85B78C7F85BF8BB7E0
:1016800080648BBF78940895CF92DF92EF92FF929F
:101690000F931F93CF93DF937C0180E30E94AF0AE7
:1016A00080E40E94AF0AD0E184FDD0E080E50E9492
:1016B000AF0A84FFD0E2F70182818823D1F087014D
:1016C0000D5F1F4FC6E3CD0F8DEF9FEF6C01CE185E
:1016D000DF08F80161918F018C2F0E94C30ACF5F50
:1016E000F7012281C601800F911F2817190609F002
:1016F00084F7F70100811181602F6770F0E26F9F1E
:10170000B001112482E38D0F0E94C30AB8017695BF
:101710006795769567957695679581E38D0F0E941D
:10172000C30AF701628185E38D0F0E94C30A8D2FE2
:1017300085958595859585950E94F00ADF91CF91D5
:101740001F910F91FF90EF90DF90CF9008958F92AF
:101750009F92AF92BF92CF92DF92EF92FF920F9340
:101760001F93CF93DF93CDB7DEB72B970FB6F894C7
:10177000DEBF0FBECDBF6C011C821D821E821F8288
:10178000188619861A861B868CE20E94AF0A80FD95
:101790006EC000E181FF5EC082E6800F0E94AF0A4A
:1017A000A82E81E6800F0E94AF0A28E0829FC00128
:1017B0001124B12CB694A794B694A794B694A79488
:1017C000B694A794B694A794A82AB92A85E6800F60
:1017D0000E94AF0A8F70882E89F016E6100F7E01E6
:1017E00084E0E80EF11C982C910E812F0E94AF0A24
:1017F000F70181937F011F5F1911F7CF02950F70D9
:1018000061E070E002C0660F771F0A95E2F740E0E2
:101810008CE20E941A0BBA82A9828B828BE0FE01B5
:101820003196D60101900D928A95E1F7C6012B966B
:101830000FB6F894DEBF0FBECDBFDF91CF911F91E1
:101840000F91FF90EF90DF90CF90BF90AF909F905F
:101850008F9008951A82198288E08B838BE0FE01B5
:101860003196D60101900D928A95E1F7DFCF00E025
:1018700093CF1F920F920FB60F9211242F933F9385
:101880004F935F936F937F938F939F93AF93BF9388
:10189000EF93FF93CF93DF93CDB7DEB72B97DEBFE8
:1018A000CDBFCE0101960E94A70B8C811F928F9312
:1018B0008CEA92E09F938F930E94C90D0F900F9036
:1018C0000F900F902B960FB6F894DEBF0FBECDBFD2
:1018D000DF91CF91FF91EF91BF91AF919F918F9148
:1018E0007F916F915F914F913F912F910F900FBE1C
:1018F0000F901F9018958CE20E94AF0A8370089594
:10190000FC01108261832091080130910901338329
:10191000228380E1689FB0011124260F371F309386
:1019200009012093080108950F931F93CF93DF932C
:10193000EC018A01888120E1829FC00111242A8163
:101940003B81820F931F0E94770DE88120E1E29F87
:10195000C0011124EA81FB81E80FF91F1787068770
:1019600088818F5F8883DF91CF911F910F910895B8
:10197000DF92EF92FF920F931F93CF93DF937C013F
:10198000D62F633008F4D3E0CDEFCD0FF701D08030
:101990000C2F10E0862F90E0801B910B0196782F82
:1019A000770F780F770F6C1B962F990F960F6FE7B5
:1019B00080E0990F0E94B3098D2D90E0801B910B60
:1019C0000B972CF00F2EF7E0DF2EF02DDD0ECD154E
:1019D000A0F4F0E1CF9F80011124D0E0F7016281F3
:1019E0007381600F711F84E09D2F0E940309CF5FF8
:1019F000005F1F4FDA5FDC12F1CFDF91CF911F91B3
:101A00000F91FF90EF90DF90089520E1629FB00169
:101A10001124DC011296ED91FC91E60FF71F8081F5
:101A20008D3429F00684F785E02D09950895868583
:101A30009785089508958F929F92AF92BF92CF920B
:101A4000DF92EF92FF92CF93DF93EC01688179816F
:101A50008A819B81611571058105910521F464E2FC
:101A600079ED8BE597E02DE133EF41E050E00E9406
:101A7000C81149015A019B01AC01A7EAB1E40E94D7
:101A8000E7116B017C01ACEEB4EFA50194010E945B
:101A9000F511DC01CB018C0D9D1DAE1DBF1DB7FFE7
:101AA00003C00197A109B04888839983AA83BB83A7
:101AB0009F77DF91CF91FF90EF90DF90CF90BF9015
:101AC000AF909F908F9008950E941B0D08958AE01B
:101AD00091E00E941B0D0895B0E0A0E080930A0100
:101AE00090930B01A0930C01B0930D010895FB019D
:101AF000DC0101900D920020E1F708950F931F93F0
:101B0000CF93DF93009759F46115710541F4F0E02C
:101B1000E0E0CF01DF91CF911F910F9108958B01EC
:101B2000EC016EE070E081E090E00E94DC0FFC01CF
:101B3000892B69F380E883830115110571F0138700
:101B4000028781E883838091E8029091E902892BE2
:101B500021F4F093E902E093E8022097D1F2D187D3
:101B6000C0878381826083838091EA029091EB0237
:101B7000892B79F6F093EB02E093EA028091EC0274
:101B80009091ED02892B29F6F093ED02E093EC029F
:101B9000C0CFB0E0A0E0EFECFDE00C940A12AE0183
:101BA0004B5F5F4FFA0161917191AF018091EA0241
:101BB0009091EB020E94020EE2E00C942612AEE03D
:101BC000B0E0E5EEFDE00C9408120D891E8986E078
:101BD0008C831A8309838FEF9FE79E838D83AE01E9
:101BE000475E5F4F6F89788DCE0101960E94020E8D
:101BF0002F813885020F131FF80110822E96E4E022
:101C00000C942412ABE0B0E0E8E0FEE00C94FA1192
:101C10007C013B018A01FC0117821682838181FFCE
:101C2000C8C1CE0101965C01F7019381F30193FDD8
:101C3000859193FF81913F01882309F453C1853237
:101C400039F493FD859193FF81913F01853229F409
:101C5000B70190E00E943A11E7CF912C212C312C52
:101C6000FFE1F31538F08B3211F190F4803209F175
:101C7000833229F137FC3CC020ED280F2A3050F583
:101C800036FE20C08AE0989E200D1124922E06C0B8
:101C90008D3291F0803371F7689430F8F30193FD41
:101CA000859193FF81913F018111DACF21C0689422
:101CB00031F8689432F8F2CF689433F8EFCF689433
:101CC00034F8ECCFEAE02E9E200D1124222E6894E9
:101CD00035F8E4CF8E3229F436FC04C1689436F826
:101CE000DDCF8C3619F4689437F8D8CF8836B1F246
:101CF000982F9F7D95549330E0F08336A1F1833780
:101D0000C1F1833509F063C02801F2E04F0E511C88
:101D1000F801C080D180692D70E036FC02C06FEF01
:101D20007FEFC6010E941D114C01689437F88201B3
:101D30000AC00C5F1F4FFFE3F98388248394912C22
:101D40006501E89437F833FE2DC0522C81149104BC
:101D500071F5552009F468CFB70180E290E00E9448
:101D60003A115A94F6CFF801808189830E5F1F4F94
:101D7000E4CF2801F2E04F0E511CF801C080D18061
:101D8000692D70E036FC02C06FEF7FEFC6010E9444
:101D90002F114C018201D5CFB70180E290E00E9463
:101DA0003A112A942814190409F0B0F7CECFF6019D
:101DB00037FC859137FE81916F01B70190E00E9459
:101DC0003A1151105A94F1E08F1A9108BFCF84361E
:101DD00019F0893609F077C0F80137FE6BC06081D1
:101DE0007181828193810C5F1F4FF32DFF763F2E0F
:101DF00097FF09C090958095709561957F4F8F4FA3
:101E00009F4F689437F82AE030E0A5010E946A11DC
:101E1000C82ECA188C2C432C36FE0CC0E89440F80F
:101E2000C91440F434FE05C032FC03C0F32DFE7E1D
:101E30004F2E892C44FE95C0FE01EC0DF11D8081D2
:101E4000803309F087C0242D297E422E842D88708E
:101E5000582E43FC95C040FE8FC09C2C821418F471
:101E60002C0C922C981844FE91C0B70180E390E0AE
:101E70000E943A1142FE09C088E790E041FE02C08C
:101E800088E590E0B7010E943A11C91408F48AC0AD
:101E9000CA94D12C9FEFC91AD90ACA0CDB1CF601CF
:101EA00082916F01B70190E00E943A11AC14BD0419
:101EB000B1F74FCF60817181072E000C880B990B11
:101EC0000E5F1F4F92CFD32CE894D4F82AE030E075
:101ED000853739F1232D297FD22E8F3601F148F431
:101EE0008835A9F0F701868197812B96E2E10C9461
:101EF0001612803749F08837A9F7D4FE02C06894DB
:101F0000D2F820E130E00DC06894D4F8F6CF34FE6A
:101F100003C0822F8660D82E20E132E002C028E084
:101F200030E0F801D7FE0FC060817181828193811A
:101F30000C5F1F4FA5010E946A11C82ECA183D2CC4
:101F4000E89437F867CF6081718190E080E00E5FA0
:101F50001F4FF0CF42FC02C0839478CF83948394C8
:101F600075CF842D867809F471CFF6CFB70180E262
:101F700090E00E943A1183948214C0F3512C73CFE5
:101F8000522C5818821408F46ECFF8CF842D86781E
:101F900009F47BCF8BE241FE80E247FC8DE2B70182
:101FA00090E071CFB70180E390E00E943A119A94DB
:101FB0006CCF8FEF9FEF99CF0F931F93CF93DF934A
:101FC000869F8001879F100D969F100D1124C801D8
:101FD0000E94F80FEC01009729F0A80170E060E082
:101FE0000E942811CE01DF91CF911F910F9108958A
:101FF0000F931F93CF93DF938230910510F482E00B
:1020000090E0E091F002F091F10230E020E0B0E0E9
:10201000A0E0309799F42115310509F44AC0281B36
:10202000390B24303105D8F58A819B816115710502
:1020300089F1FB0193838283FE0111C040815181AC
:102040000281138148175907E0F04817590799F49E
:10205000109761F012960C93129713961C93329678
:10206000CF01DF91CF911F910F9108950093F0025E
:102070001093F102F4CF2115310551F042175307A7
:1020800038F0A901DB019A01BD01DF01F801C1CFE0
:10209000EF01F9CF9093F1028093F002CDCFFE01D2
:1020A000E20FF31F819391932250310939832883E2
:1020B000D7CF2091EE023091EF02232B41F42091F3
:1020C0001001309111013093EF022093EE02209124
:1020D0000E0130910F012115310541F42DB73EB7A6
:1020E0004091120150911301241B350BE091EE0237
:1020F000F091EF02E217F307A0F42E1B3F0B281715
:10210000390778F0AC014E5F5F4F2417350748F070
:102110004E0F5F1F5093EF024093EE028193919315
:102120009FCFF0E0E0E09CCFCF93DF930097E9F002
:10213000FC01329713821282A091F002B091F10259
:10214000ED0130E020E01097A1F420813181820F71
:10215000931F2091EE023091EF022817390709F002
:1021600061C0F093EF02E093EE02DF91CF9108950A
:10217000EA01CE17DF07E8F54A815B819E01411530
:102180005105B1F7E901FB83EA8349915991C40FE5
:10219000D51FEC17FD0761F4808191810296840FB1
:1021A000951FE90199838883828193819B838A8328
:1021B000F0E0E0E012968D919C9113970097B9F5AD
:1021C0002D913C911197CD010296820F931F209182
:1021D000EE023091EF022817390739F6309751F5A2
:1021E0001092F1021092F002B093EF02A093EE026F
:1021F000BCCFD383C28340815181840F951FC81700
:10220000D90761F44E5F5F4F88819981480F591F4C
:10221000518340838A819B81938382832115310579
:1022200009F0B0CFF093F102E093F0029ECFFD01F0
:10223000DC01C0CF13821282D7CFFC010590615020
:1022400070400110D8F7809590958E0F9F1F0895CC
:10225000DC0101C06D9341505040E0F70895FC014E
:102260006150704001900110D8F7809590958E0FC5
:102270009F1F08950F931F93CF93DF93182F092F5C
:10228000EB018B8181FD09C01FEF0FEF812F902F94
:10229000DF91CF911F910F91089582FF14C02E817D
:1022A0003F818C819D81281739073CF4E881F981B1
:1022B000CF0101969983888310838E819F81019637
:1022C0009F838E83E3CFE885F985812F0995892B3C
:1022D000A1F3DACFFA01AA27283051F1203181F198
:1022E000E8946F936E7F6E5F7F4F8F4F9F4FAF4F1E
:1022F000B1E03ED0B4E03CD0670F781F891F9A1F31
:10230000A11D680F791F8A1F911DA11D6A0F711DE4
:10231000811D911DA11D20D009F468943F912AE0F0
:10232000269F11243019305D3193DEF6CF010895D8
:10233000462F4770405D4193B3E00FD0C9F7F6CF09
:10234000462F4F70405D4A3318F0495D31FD4052D1
:10235000419302D0A9F7EACFB4E0A6959795879567
:1023600077956795BA95C9F7009761057105089546
:102370009B01AC010A2E06945795479537952795F2
:10238000BA95C9F7620F731F841F951FA01D08958A
:10239000052E97FB1EF400940E94DF1157FD07D015
:1023A0000E94311207FC03D04EF40C94DF115095BB
:1023B0004095309521953F4F4F4F5F4F0895909531
:1023C0008095709561957F4F8F4F9F4F08950E9424
:1023D0005312A59F900DB49F900DA49F800D911D49
:1023E00011240895B7FF0C94E7110E94E711821B96
:1023F000930B08952F923F924F925F926F927F922C
:102400008F929F92AF92BF92CF92DF92EF92FF9204
:102410000F931F93CF93DF93CDB7DEB7CA1BDB0BB0
:102420000FB6F894DEBF0FBECDBF09942A88398855
:1024300048885F846E847D848C849B84AA84B9845C
:10244000C884DF80EE80FD800C811B81AA81B98168
:10245000CE0FD11D0FB6F894DEBF0FBECDBFED017C
:102460000895A1E21A2EAA1BBB1BFD010DC0AA1FD5
:10247000BB1FEE1FFF1FA217B307E407F50720F0ED
:10248000A21BB30BE40BF50B661F771F881F991F68
:102490001A9469F760957095809590959B01AC01B1
:1024A000BD01CF010895A29FB001B39FC001A39FBA
:1024B000700D811D1124911DB29F700D811D11247D
:0824C000911D0895F894FFCF6F
:1024C8007000040608800014001C010000000000D1
:1024D800F20220001F0048656C6C6F20576F726C09
:1024E800642575006164632076616C75653A202502
:1024F800752C2025752C2025692C2025690D0A00AE
:102508007370692076616C75653A2025692C2025E1
:10251800692C2025690D0A0048656C6C6F20576F7F
:10252800726C64217C5F230048656C6C6F20576F68
:10253800726C642121212025690D0A00537461728F
:1025480074696E67205352414D20746573742E2E42
:102558002E0A0D00577269746520706861736520D2
:102568006572726F723A206578745F72616D5B256F
:1025780034645D203D2025303258202873686F75FB
:102588006C642062652025303258290A0D00526596
:102598007472696576616C20706861736520657214
:1025A800726F723A206578745F72616D5B2534646E
:1025B8005D203D2025303258202873686F756C6483
:1025C8002062652025303258290A0D005352414DAA
:1025D800207465737420636F6D706C657465642016
:1025E80077697468200A0D253464206572726F72E9
:1025F8007320696E207772697465207068617365ED
:1026080020616E64200A0D253464206572726F7231
:102618007320696E2072657472696576616C2070CA
:10262800686173650A0D0025690046207465737436
:102638004A6F790046206F7074696F6E32004620C9
:102648006F7074696F6E330046206F7074696F6EB7
:10265800340046206F7074696F6E350046207465CB
:102668007374436972636C650025692025690A0DD6
:102678000063616C6962726174656420746F3A20EA
:0A26880025752C2025750D0A0000B1
:00000001FF
