:100000000C9438000C9455000C9455000C94550039
:100010000C9455000C9455000C9455000C9455000C
:100020000C9455000C9455000C9455000C945500FC
:100030000C9455000C9455000C9455000C945500EC
:100040000C9455000C9455000C9455000C945500DC
:100050000C9455000C9455000C9455000C945500CC
:100060000C9455000C9455000C9455000C945500BC
:1000700011241FBECFEFD4E0DEBFCDBF12E0A0E061
:10008000B1E0E0ECFCE002C005900D92AE30B107AB
:10009000D9F722E0AEE0B2E001C01D92A831B2076C
:1000A000E1F70E9457000C945E060C9400000E9439
:1000B00021010E9432010E948C0090E080E00895AE
:1000C000D09AD89A80E49DE0A3E0B0E00197A1091E
:1000D000B109E1F7D89880E49DE0A3E0B0E0019792
:1000E000A109B109E1F7EDCFC0E00EE011E001C0D8
:1000F000CF5F1F92CF931F930F930E94E8010F9041
:100100000F900F900F9080E49DE0A3E0B0E0019786
:10011000A109B109E1F7ECCFCF92DF92EF92FF9204
:100120000F931F93CF93DF9382E291E09F938F937E
:100130000E94E8010E948D016C010E9492010F90C3
:100140000F90D0E0C0E010E000E00F2EFAE3EF2EB9
:10015000F1E0FF2EF02D05C02196C11598E0D907DA
:10016000F1F00E948D01FE01F85E80832081281746
:1001700099F399279F938F931F922F93DF93CF9398
:10018000FF92EF920E94E8010F5F1F4F8DB79EB75D
:1001900008960FB6F8949EBF0FBE8DBFDDCFC60187
:1001A0000E949201D0E0C0E0F12CE12C0F2EF4E788
:1001B000CF2EF1E0DF2EF02D05C02196C11598E07D
:1001C000D907F1F00E948D01FE01F85E2081281709
:1001D000A1F399279F938F931F922F93DF93CF9330
:1001E000DF92CF920E94E8018FEFE81AF80A8DB7EC
:1001F0009EB708960FB6F8949EBF0FBE8DBFDDCF99
:10020000FF92EF921F930F9382EB91E09F938F9356
:100210000E94E8010F900F900F900F900F900F9099
:10022000DF91CF911F910F91FF90EF90DF90CF90D2
:1002300008955D9BFECF8CB908955F9BFECF8CB176
:10024000089510BC8FE189B988E18AB98EE880BD34
:100250006DE171E089E191E00E949D0108958BB10B
:100260008078089585B7806885BF80B7806280BF39
:100270000895FB01F05F80830895905FFC01808109
:1002800008958F929F92AF92BF92CF92DF92EF929A
:10029000FF92CF93DF93EC01688179818A819B8102
:1002A000611571058105910521F464E279ED8BE515
:1002B00097E02DE133EF41E050E00E94C405490191
:1002C0005A019B01AC01A7EAB1E40E94E3056B016E
:1002D0007C01ACEEB4EFA50194010E94F105DC01B4
:1002E000CB018C0D9D1DAE1DBF1DB7FF03C0019737
:1002F000A109B04888839983AA83BB839F77DF9144
:10030000CF91FF90EF90DF90CF90BF90AF909F90F4
:100310008F9008950E944101089580E091E00E942D
:1003200041010895B0E0A0E08093000190930101A5
:10033000A0930201B093030108950F931F93CF93ED
:10034000DF93009759F46115710541F4F0E0E0E0A6
:10035000CF01DF91CF911F910F9108958B01EC0197
:100360006EE070E081E090E00E94D803FC01892BF0
:1003700069F380E883830115110571F01387028703
:1003800081E8838380910E0290910F02892B21F4E2
:10039000F0930F02E0930E022097D1F2D187C0872D
:1003A0008381826083838091100290911102892B56
:1003B00079F6F0931102E09310028091120290916D
:1003C0001302892B29F6F0931302E0931202C0CF97
:1003D000B0E0A0E0EEEEF1E00C940606AE014B5F5B
:1003E0005F4FFA0161917191AF018091100290917C
:1003F00011020E94FE01E2E00C942206ABE0B0E0A4
:10040000E4E0F2E00C94F6057C013B018A01FC017A
:1004100017821682838181FFC8C1CE0101965C01DB
:10042000F7019381F30193FD859193FF81913F0142
:10043000882309F453C1853239F493FD859193FFE4
:1004400081913F01853229F4B70190E00E94360581
:10045000E7CF912C212C312CFFE1F31538F08B32B2
:1004600011F190F4803209F1833229F137FC3CC05C
:1004700020ED280F2A3050F536FE20C08AE0989EE5
:10048000200D1124922E06C08D3291F0803371F729
:10049000689430F8F30193FD859193FF81913F01BA
:1004A0008111DACF21C0689431F8689432F8F2CF24
:1004B000689433F8EFCF689434F8ECCFEAE02E9EDE
:1004C000200D1124222E689435F8E4CF8E3229F4C1
:1004D00036FC04C1689436F8DDCF8C3619F4689484
:1004E00037F8D8CF8836B1F2982F9F7D9554933046
:1004F000E0F08336A1F18337C1F1833509F063C0A1
:100500002801F2E04F0E511CF801C080D180692D06
:1005100070E036FC02C06FEF7FEFC6010E94190544
:100520004C01689437F882010AC00C5F1F4FFFE34B
:10053000F98388248394912C6501E89437F833FE7D
:100540002DC0522C8114910471F5552009F468CF07
:10055000B70180E290E00E9436055A94F6CFF80188
:10056000808189830E5F1F4FE4CF2801F2E04F0E98
:10057000511CF801C080D180692D70E036FC02C0AA
:100580006FEF7FEFC6010E942B054C018201D5CF92
:10059000B70180E290E00E9436052A9428141904DD
:1005A00009F0B0F7CECFF60137FC859137FE819187
:1005B0006F01B70190E00E94360551105A94F1E0A6
:1005C0008F1A9108BFCF843619F0893609F077C0A9
:1005D000F80137FE6BC060817181828193810C5F6D
:1005E0001F4FF32DFF763F2E97FF09C09095809502
:1005F000709561957F4F8F4F9F4F689437F82AE031
:1006000030E0A5010E946605C82ECA188C2C432C28
:1006100036FE0CC0E89440F8C91440F434FE05C01E
:1006200032FC03C0F32DFE7E4F2E892C44FE95C074
:10063000FE01EC0DF11D8081803309F087C0242D6F
:10064000297E422E842D8870582E43FC95C040FE92
:100650008FC09C2C821418F42C0C922C981844FEF9
:1006600091C0B70180E390E00E94360542FE09C0C8
:1006700088E790E041FE02C088E590E0B7010E9463
:100680003605C91408F48AC0CA94D12C9FEFC91A40
:10069000D90ACA0CDB1CF60182916F01B70190E008
:1006A0000E943605AC14BD04B1F74FCF6081718153
:1006B000072E000C880B990B0E5F1F4F92CFD32C87
:1006C000E894D4F82AE030E0853739F1232D297FEA
:1006D000D22E8F3601F148F48835A9F0F7018681D2
:1006E00097812B96E2E10C941206803749F0883707
:1006F000A9F7D4FE02C06894D2F820E130E00DC022
:100700006894D4F8F6CF34FE03C0822F8660D82ECA
:1007100020E132E002C028E030E0F801D7FE0FC04F
:1007200060817181828193810C5F1F4FA5010E94BE
:100730006605C82ECA183D2CE89437F867CF60814B
:10074000718190E080E00E5F1F4FF0CF42FC02C04D
:10075000839478CF8394839475CF842D867809F41D
:1007600071CFF6CFB70180E290E00E943605839406
:100770008214C0F3512C73CF522C5818821408F4F1
:100780006ECFF8CF842D867809F47BCF8BE241FEC3
:1007900080E247FC8DE2B70190E071CFB70180E3C2
:1007A00090E00E9436059A946CCF8FEF9FEF99CF1F
:1007B0000F931F93CF93DF93869F8001879F100D28
:1007C000969F100D1124C8010E94F403EC010097BC
:1007D00029F0A80170E060E00E942405CE01DF91BD
:1007E000CF911F910F9108950F931F93CF93DF9394
:1007F0008230910510F482E090E0E0911602F091D1
:10080000170230E020E0B0E0A0E0309799F4211525
:10081000310509F44AC0281B390B24303105D8F5BD
:100820008A819B816115710589F1FB019383828324
:10083000FE0111C04081518102811381481759077F
:10084000E0F04817590799F4109761F012960C934D
:10085000129713961C933296CF01DF91CF911F917F
:100860000F9108950093160210931702F4CF2115EB
:10087000310551F04217530738F0A901DB019A0105
:10088000BD01DF01F801C1CFEF01F9CF909317024D
:1008900080931602CDCFFE01E20FF31F8193919357
:1008A0002250310939832883D7CF20911402309107
:1008B0001502232B41F4209106013091070130935A
:1008C0001502209314022091040130910501211595
:1008D000310541F42DB73EB740910801509109010F
:1008E000241B350BE0911402F0911502E217F30777
:1008F000A0F42E1B3F0B2817390778F0AC014E5F90
:100900005F4F2417350748F04E0F5F1F50931502B5
:1009100040931402819391939FCFF0E0E0E09CCF4D
:10092000CF93DF930097E9F0FC0132971382128294
:10093000A0911602B0911702ED0130E020E010976F
:10094000A1F420813181820F931F209114023091F4
:1009500015022817390709F061C0F0931502E093DA
:100960001402DF91CF910895EA01CE17DF07E8F571
:100970004A815B819E0141155105B1F7E901FB8375
:10098000EA8349915991C40FD51FEC17FD0761F413
:10099000808191810296840F951FE9019983888354
:1009A000828193819B838A83F0E0E0E012968D91AF
:1009B0009C9113970097B9F52D913C911197CD011A
:1009C0000296820F931F209114023091150228176E
:1009D000390739F6309751F5109217021092160226
:1009E000B0931502A0931402BCCFD383C28340817D
:1009F0005181840F951FC817D90761F44E5F5F4F6F
:100A000088819981480F591F518340838A819B8136
:100A1000938382832115310509F0B0CFF09317023B
:100A2000E09316029ECFFD01DC01C0CF138212823B
:100A3000D7CFFC010590615070400110D8F7809528
:100A400090958E0F9F1F0895DC0101C06D9341505A
:100A50005040E0F70895FC01615070400190011092
:100A6000D8F7809590958E0F9F1F08950F931F9331
:100A7000CF93DF93182F092FEB018B8181FD09C0E4
:100A80001FEF0FEF812F902FDF91CF911F910F91CB
:100A9000089582FF14C02E813F818C819D8128178B
:100AA00039073CF4E881F981CF0101969983888365
:100AB00010838E819F8101969F838E83E3CFE8858B
:100AC000F985812F0995892BA1F3DACFFA01AA279D
:100AD000283051F1203181F1E8946F936E7F6E5F81
:100AE0007F4F8F4F9F4FAF4FB1E03ED0B4E03CD02F
:100AF000670F781F891F9A1FA11D680F791F8A1F12
:100B0000911DA11D6A0F711D811D911DA11D20D078
:100B100009F468943F912AE0269F11243019305D32
:100B20003193DEF6CF010895462F4770405D419323
:100B3000B3E00FD0C9F7F6CF462F4F70405D4A3370
:100B400018F0495D31FD4052419302D0A9F7EACF38
:100B5000B4E0A6959795879577956795BA95C9F767
:100B600000976105710508959B01AC010A2E06945A
:100B70005795479537952795BA95C9F7620F731F13
:100B8000841F951FA01D0895052E97FB1EF4009449
:100B90000E94DB0557FD07D00E942D0607FC03D0FD
:100BA0004EF40C94DB0550954095309521953F4FC0
:100BB0004F4F5F4F089590958095709561957F4F49
:100BC0008F4F9F4F08950E944F06A59F900DB49F91
:100BD000900DA49F800D911D11240895B7FF0C94D2
:100BE000E3050E94E305821B930B08952F923F9229
:100BF0004F925F926F927F928F929F92AF92BF922D
:100C0000CF92DF92EF92FF920F931F93CF93DF93D8
:100C1000CDB7DEB7CA1BDB0B0FB6F894DEBF0FBE35
:100C2000CDBF09942A88398848885F846E847D8482
:100C30008C849B84AA84B984C884DF80EE80FD8084
:100C40000C811B81AA81B981CE0FD11D0FB6F894FA
:100C5000DEBF0FBECDBFED010895A1E21A2EAA1B83
:100C6000BB1BFD010DC0AA1FBB1FEE1FFF1FA2175C
:100C7000B307E407F50720F0A21BB30BE40BF50B59
:100C8000661F771F881F991F1A9469F760957095E2
:100C9000809590959B01AC01BD01CF010895A29F65
:100CA000B001B39FC001A39F700D811D1124911D40
:100CB000B29F700D811D1124911D0895F894FFCFEE
:100CC000010000000000180220001F00001048650D
:100CD0006C6C6F20576F726C642121212025690D87
:100CE0000A005374617274696E67205352414D203B
:100CF000746573742E2E2E0A0D0057726974652068
:100D00007068617365206572726F723A20657874DD
:100D10005F72616D5B2534645D203D202530325863
:100D2000202873686F756C64206265202530325806
:100D3000290A0D0052657472696576616C207068CD
:100D4000617365206572726F723A206578745F72A4
:100D5000616D5B2534645D203D20253032582028AC
:100D600073686F756C642062652025303258290ADB
:100D70000D005352414D207465737420636F6D7084
:100D80006C657465642077697468200A0D25346485
:100D9000206572726F727320696E20777269746554
:100DA00020706861736520616E64200A0D253464CB
:100DB000206572726F727320696E20726574726939
:0E0DC0006576616C2070686173650A0D000035
:00000001FF
