:100000000C9460030C947D030C947E0B0C947D0384
:100010000C947D030C947D030C947D030C947D0360
:100020000C947D030C947D030C947D030C947D0350
:100030000C947D030C947D030C947D030C947D0340
:100040000C947D030C947D030C947D030C947D0330
:100050000C947D030C947D030C947D030C947D0320
:100060000C947D030C947D030C947D030C947D0310
:1000700000000000005C00000C000C007C287C28C4
:1000800058DC68002410480028542840000C000068
:10009000007884008478000054385400107C1000EC
:1000A00080400000101010000040000060100C00A4
:1000B00038543800487C40004864580044542C00B0
:1000C0001C107C005C5424003854240064140C0080
:1000D00068542C0048543800004800008048000054
:1000E0001028440028282800442810000454080040
:1000F00038445C00781478007C5428003844280088
:100100007C4438007C5444007C140400384474005F
:100110007C107C00447C440020403C007C106C003F
:100120007C4040007C187C0078103C00384438004B
:100130007C1408003844B8007C146800485424003B
:10014000047C04007C407C003C603C007C307C00F3
:100150006C106C000C700C0064544C00007C44006B
:100160000C106000447C00000804080080808000BF
:1001700000040800304878007C48300030484800CF
:1001800030487C00306850001078140090A8780047
:100190007C08700050744000808074007C106800FF
:1001A000447C4000781078007808700030483000B7
:1001B000F82810003048F80078100800505828003F
:1001C000083C4800384078003840380078207800F3
:1001D0004830480098A0780048685800107884009B
:1001E000007C00008478100008040804000000006F
:1001F0000000005F00000007000700147F147F1458
:10020000242A7F2A1223130864623649552250009B
:1002100005030000001C2241000041221C00082AA6
:100220001C2A0808083E080800503000000808088A
:100230000808006060000020100804023E51494593
:100240003E00427F400042615149462141454B31C9
:100250001814127F1027454545393C4A4949300159
:10026000710905033649494936064949291E0036B0
:100270003600000056360000000814224114141401
:10028000141441221408000201510906324979412F
:100290003E7E1111117E7F494949363E414141223E
:1002A0007F4141221C7F494949417F090901013EA3
:1002B000414151327F0808087F00417F41002040C2
:1002C000413F017F081422417F404040407F0204AB
:1002D000027F7F0408107F3E4141413E7F090909AA
:1002E000063E4151215E7F09192946464949493157
:1002F00001017F01013F4040403F1F2040201F7F00
:100300002018207F631408146303047804036151E8
:1003100049454300007F4141020408102041417FCC
:100320000000040201020440404040400001020479
:100330000020545454787F4844443838444444207E
:10034000384444487F3854545418087E0901020840
:100350001454543C7F0804047800447D400020403D
:10036000443D00007F10284400417F40007C041879
:1003700004787C0804047838444444387C14141409
:1003800008081414187C7C080404084854545420A9
:10039000043F4440203C4040207C1C2040201C3C2A
:1003A0004030403C44281028440C5050503C446499
:1003B000544C44000836410000007F0000004136E4
:1003C000080002010302010000000000000000001C
:1003D000065F5F0600000000070700070700001423
:1003E0007F7F147F7F1400242E6B6B3A120000462F
:1003F0006630180C666200307A4F5D377A48000428
:1004000007030000000000001C3E634100000000E4
:1004100041633E1C000000082A3E1C1C3E2A0808BE
:10042000083E3E0808000000A0E060000000000850
:100430000808080808000000006060000000006074
:1004400030180C060301003E7F594D7F3E000042EC
:10045000427F7F40400000627359496F660000226E
:100460006349497F360000181C16137F7F10002750
:100470006745457D3900003C7E4B497930000003DB
:100480006371190F070000367F49497F3600000667
:100490004F49693F1E000000006C6C000000000026
:1004A000A0EC6C00000000081C3663410000001442
:1004B00014141414140000004163361C08000002D8
:1004C0000351590F0600003E7F415D5D1F1E007CF9
:1004D0007E13137E7C0000417F7F49497F36001CDC
:1004E0003E634141632200417F7F41637F1C0041A5
:1004F0007F7F495D416300417F7F491D0103001CEF
:100500003E6341517372007F7F08087F7F000000C7
:10051000417F7F41000000307040417F3F0100413A
:100520007F7F081C776300417F7F41406070007FC0
:100530007F060C067F7F007F7F060C187F7F001CE4
:100540003E6341633E1C00417F7F49090F06001E48
:100550003F21717F5E0000417F7F19396F46002681
:10056000674D597B32000003417F7F410300007FCC
:100570007F40407F7F00001F3F60603F1F00007F83
:100580007F3018307F7F0063771C081C776300077B
:100590004F78784F0700006773594D47637100002B
:1005A0007F7F41410000000103060C18306000000D
:1005B00041417F7F000000080C0603060C08008004
:1005C000808080808080800000030704000000207D
:1005D0007454543C784000413F7F44447C38003898
:1005E0007C44446C280000307848493F7F40003804
:1005F0007C54545C180000487E7F49030200009838
:10060000BCA4A4F87C0400417F7F08047C7800002F
:10061000447D7D4000000040C484FD7D0000004119
:100620007F7F10386C440000417F7F400000007CD9
:100630007C0C180C7C78007C7C04047C78000038EE
:100640007C44447C38000084FCF8A4243C18001846
:100650003C24A4F8FC8400447C78441C1800004826
:100660005C54547424000000043E7F442400003C89
:100670007C40403C7C40001C3C60603C1C00003CDA
:100680007C6030607C3C00446C3810386C44009CCA
:10069000BCA0A0FC7C00004C64745C4C64000008AE
:1006A000083E7741410000000000777700000041DC
:1006B00041773E0808000002030103020301000025
:1006C00011241FBECFEFD4E0DEBFCDBF12E0A0E00B
:1006D000B1E0ECE0F3E202C005900D92A63CB10758
:1006E000D9F722E0A6ECB2E001C01D92A93DB20705
:1006F000E1F70E947F030C9484110C9400000E9487
:100700006B060E947C060E94B9060E9404070E94A4
:100710001B070E94220A0E947B0A80E197E2019750
:10072000F1F790E080E008950E949E0606E111E056
:10073000C2E3D1E00E948B060E94D706B82E0E9429
:10074000E4066C010E94D0067C010E94C906DD24EB
:10075000DF92CF922B2D0B2C000C330B3F93BF92CB
:10076000FF24FF92EF9299279F938F931F930F93EC
:100770000E940E0D80E00E94F10683E00E940E07A9
:100780000E94D6070E941207E82E0E941207F82E38
:100790000E9412071F92EF921F92FF921F928F9357
:1007A000DF93CF930E940E0D88E00E94F1068DB773
:1007B0009EB742960FB6F8949EBF0FBE8DBF80E4E1
:1007C0009DE0A3E0B0E00197A109B109E1F7B2CF44
:1007D000CF93DF930E946A0730E020E061E070E091
:1007E00050C0FC01F595E795F595E795F595E795EA
:1007F000F695FE2FEE27F795E795E20FF31FFC5EC7
:10080000DC01A770BB27EB0102C0CC0FDD1FAA954E
:10081000E2F7BC2FB095A081AB23A0830196803472
:10082000910549F1DC019097AA9FF001AB9FF00D73
:10083000F00D1124E40FF51FE039F14094F6FC01AE
:10084000F595E795F595E795F595E795F695FE2FDE
:10085000EE27F795E795E20FF31FFC5EDC01A7702A
:10086000BB27EB0102C0CC0FDD1FAA95E2F7A081E8
:10087000AC2BA083D3CF2F5F3F4F2038310509F435
:100880004CC0C90180549109889FA001899F500DD7
:10089000500D112490E080E0C5CF01968034910581
:1008A00059F1FC01B097EE9F9001EF9F300D300D94
:1008B0001124240F351F213E31057CF7FC01F595ED
:1008C000E795F595E795F595E795F695FE2FEE27D3
:1008D000F795E795E60FF71FFC5E9C01277033271D
:1008E000ED0102C0CC0FDD1F2A95E2F73C2F3095B9
:1008F000208123232083D1CF6F5F7F4F6038710524
:1009000089F0CB0180549109889FA001899F500DE7
:10091000500D112490E080E0C4CF70E060E0A1E0D1
:10092000B0E0EFCF80E094E10E94AD07DF91CF917E
:100930000895D0E010E001C0DC2F80EA96E8A1E045
:10094000B0E00197A109B109E1F70E941B08C1E0DD
:10095000CD0F6AE471E088E29D2F0E94860880E056
:1009600094E10E94AD07C03438F3C12FE5CFD09A8F
:10097000D89A80E49DE0A3E0B0E00197A109B10915
:10098000E1F7D89880E49DE0A3E0B0E00197A109E9
:10099000B109E1F7EDCFC0E00AE511E001C0CF5F9A
:1009A0001F92CF931F930F930E940E0D0F900F90E5
:1009B0000F900F9080E49DE0A3E0B0E00197A109C3
:1009C000B109E1F7ECCFCF92DF92EF92FF920F9354
:1009D0001F93CF93DF938EE691E09F938F930E94B6
:1009E0000E0D0E94AC0C6C010E94B10C0F900F9088
:1009F000D0E0C0E010E000E00F2EF6E8EF2EF1E0CE
:100A0000FF2EF02D05C02196C1159CE0D907F1F00D
:100A10000E94AC0CFE01FC5E80832081281799F3B4
:100A200099279F938F931F922F93DF93CF93FF92DA
:100A3000EF920E940E0D0F5F1F4F8DB79EB7089665
:100A40000FB6F8949EBF0FBE8DBFDDCFC6010E94CA
:100A5000B10CD0E0C0E0F12CE12C0F2EF0ECCF2E49
:100A6000F1E0DF2EF02D05C02196C1159CE0D907DD
:100A7000F1F00E94AC0CFE01FC5E20812817A1F36E
:100A800099279F938F931F922F93DF93CF93DF929A
:100A9000CF920E940E0D8FEFE81AF80A8DB79EB71D
:100AA00008960FB6F8949EBF0FBE8DBFDDCFFF92A4
:100AB000EF921F930F938EEF91E09F938F930E947D
:100AC0000E0D0F900F900F900F900F900F90DF91E1
:100AD000CF911F910F91FF90EF90DF90CF900895ED
:100AE00080E00E94F10685E00E940E0790E080E021
:100AF0000196803127E29207D9F782E00E940E0723
:100B000081E00E940E0788E00E94F106C12C0F2EA2
:100B1000F9E5EF2EF2E0FF2EF02D03E612E0DD24E2
:100B2000D394D0E01EC02F939F931F930F930E94E6
:100B30000E0DCF5F0F900F900F900F90C83149F0BE
:100B40008C2F0E94F6079D2D2D2F8111ECCF9D2F0C
:100B5000EACF80E49DE0A3E0B0E00197A109B109EC
:100B6000E1F70E94DD07C3940E940A081F92CF920A
:100B70001F928F93FF92EF920E940E0D0F900F9095
:100B80000F900F900F900F90C0E0DACFCF93DF93CC
:100B90000E946A0760E082E00E948A078FEF0E944D
:100BA0000E0780E00E940E0780E492E4AFE0B0E020
:100BB0000197A109B109E1F7CEE7D0E08FEF0E94DC
:100BC0000E072197D9F7DF91CF910895CF93DF9347
:100BD00000D000D0CDB7DEB764E1CE0101960E940F
:100BE000C50B44E953E066E672E0CE0101960E942F
:100BF000D90B49E954E060E772E0CE0101960E940A
:100C0000D90B49E954E06AE772E0CE0101960E94EF
:100C1000D90B49E954E064E872E0CE0101960E94E4
:100C2000D90B49E954E06EE872E0CE0101960E94CA
:100C3000D90B48EE53E068E972E0CE0101960E94BC
:100C4000D90B8A811F928F9389811F928F9385EA96
:100C500092E09F938F930E940E0D0F900F900F9034
:100C60000F900F900F9010E010C080E10E94F607E7
:100C7000811123C00E941B08612FCE0101960E94A2
:100C8000FD0B80E094E10E94AD0780EA96E8A1E0C8
:100C9000B0E00197A109B109E1F70E94DD0784E105
:100CA0000E94F6078111115082E10E94F60781111E
:100CB0001F5F1630D0F210E0D8CF612FCE01019621
:100CC0000E944A0CD7CF5D9BFECF8CB908955F9BE5
:100CD000FECF8CB1089510BC8FE189B988E18AB943
:100CE0008EE880BD67E676E083E696E00E94C30C5E
:100CF00008958BB18078089585B7806885BF80B7E7
:100D0000806280BF0895FB01FC5E808308959C5E35
:100D1000FC01808108951092001084E690E0019714
:100D2000F1F7A0E0B0E18C91E7ECF2E080838C91E8
:100D300081838C9182838C91838308950E948B069A
:100D4000E7ECF2E081818093C60290819093CB0220
:100D50001F929F931F928F938DEA92E09F938F93A0
:100D60000E940E0D0F900F900F900F900F900F900C
:100D700008958D9A83E48FBD89E18EBD1BBC1ABC9A
:100D80000E949E060895E82FF0E0E953FD4F808110
:100D900008958091C60281589091C802891B0895D8
:100DA0008091C70281589091CB02891B08950E94BF
:100DB000C906823B38F491E08D3408F090E0892F29
:100DC0008195089581E008950E94D006823B38F411
:100DD00091E08D3408F090E0892F8195089581E0AD
:100DE000089524E030E0A90102C0440F551F8A9500
:100DF000E2F7CA0128B39CE19827922B98BB98B3DD
:100E00008095892388BB089587B3806A87BBBE9885
:100E100087B38C6187BB81E58DB908958FB9779BC6
:100E2000FECF08951FB8779BFECF8FB10895C19A6A
:100E30000895C1980895B99A81E00E94F1060E9430
:100E400019078EEA0E940E0781E80E940E078FEFB5
:100E50000E940E0784EA0E940E0786EA0E940E078F
:100E600081EA0E940E0788EC0E940E0788EA0E9421
:100E70000E078FE30E940E078FEA0E940E07089567
:100E800081E00E94F1060E94190780E20E940E078D
:100E900080E00E940E0782E20E940E0780E00E941E
:100EA0000E0787E00E940E070E94170708950F9310
:100EB0001F93CF930E94400700E014E0C0EF8C2FF7
:100EC0000E940E07C09501501109C9F7CF911F91DB
:100ED0000F910895CF93DF930E944007C0E0D4E0C4
:100EE00080E00E940E072197D9F7DF91CF910895F6
:100EF000CF93C82F81E00E94F1060E941907C1110B
:100F000005C086EA0E940E07CF91089587EA0E94E5
:100F10000E07FACFCF93DF93D82FC62F81E00E9420
:100F2000F1060E94190780E20E940E0782E00E94EB
:100F30000E078D2F8F70806B0E940E078C2F8F7085
:100F40000E940E078C2F82958F7080610E940E0781
:100F50000E941707DF91CF910895CF92DF92EF9211
:100F6000FF920F931F93CF93DF937C010E94400762
:100F700067018CEFD81A06C088E0E80EF11CCE1489
:100F8000DF0459F0E7018701085F1F4F89910E9434
:100F90000E070C171D07D1F7EFCFDF91CF911F91EF
:100FA0000F91FF90EF90DF90CF90089590E080E058
:100FB000019681329105E1F70895CF93DF9380E0A8
:100FC0000E94F10684E00E940E070E941207CCECFA
:100FD000D2E088830E94120789830E9412078A83C5
:100FE00081E00E94F106DF91CF910895E82FE69508
:100FF000E695E695F0E0E453FD4F877021E030E0A0
:10100000A90102C0440F551F8A95E2F7CA019081D9
:1010100089230895ECECF2E080819181890F92811F
:10102000890F08959093070180930601609305014D
:10103000409304010895E0910601F0910701809129
:10104000050140E0811111C0089580E09F012F5FEC
:101050003F4F10828F5FF901909104018917B0F31F
:101060004F5F80910501481728F480910401811198
:10107000ECCFF6CF089587EC93E090930101809335
:10108000000170930301609302010895CF93DF93F1
:10109000EB0120910501A82FB0E0929FA00DB11D9A
:1010A00011248091060190910701A80FB91F888132
:1010B00042E051E0811124C0DF91CF9108958881F1
:1010C000082E000C990B8097389FF001399FF00D86
:1010D0001124CF01820F911DE0910001F0910101D7
:1010E000E80FF91FE491CD010196EC932F5FFA010F
:1010F0003081DC01231718F3219688818823E1F2DF
:10110000FA01308120E03111DACFF6CF6F927F9271
:101110008F929F92AF92BF92CF92DF92EF92FF9207
:101120000F931F93CF93DF933B01592F56955695FD
:10113000569540910501282F30E0549F200D311D18
:1011400011244091060150910701240F351F97701B
:10115000809103016894882483F8912C881A91085F
:10116000092F6FEF70E0082C02C0759567950A94FF
:10117000E2F7092E02C0660F771F0A94E2F7B72E36
:1011800088E0A82EA91AD3018C91882309F45FC0A6
:1011900042E051E099244FC0E301E8800E2C000C9E
:1011A000FF08D0E2ED1AF108EC9CF001ED9CF00D87
:1011B000FC9CF00D11247F01E80EF91EE091000166
:1011C000F0910101EE0DFF1DE491F0E0082C02C04A
:1011D000F595E7950A94E2F77F01002E02C0EE0C28
:1011E000FF1C0A94E2F7E622FC90EF24ED92E090D7
:1011F0000501E80EF92EF11CE20EF31E0A2C02C0C6
:10120000F595E7950A94E2F7EB21E701F881EF27DE
:10121000E8830196EA01E881CE2ED12C8C159D053C
:101220000CF4BACF2E0F311DDFEF6D1A7D0AF301DA
:101230008081882361F0DA01EC91CE2ED12CD90186
:1012400090E080E01C141D040CF4A6CFEBCFDF91DE
:10125000CF911F910F91FF90EF90DF90CF90BF90B3
:10126000AF909F908F907F906F900895DF92EF9254
:10127000FF920F931F93CF93DF93B82FD62E292F72
:1012800026952695269530910501409106015091AD
:101290000701329F400D511D1124A72FA695A69539
:1012A000A695AF5FA21B97702FEF30E0F90102C047
:1012B000EE0FFF1F9A95E2F7FE2E777008E010E020
:1012C000071B110902C0359527950A95E2F7722F81
:1012D000A13009F462C0861708F078C0082F10E02A
:1012E000FA01E00FF11F2FEF260F281B0F5F1F4F92
:1012F000200F312F311D240F351F91918F01015087
:1013000011099F29E8019883E217F307B1F7A33089
:1013100008F460C0EB2EF12C0FEF0D0D0B1B9701A5
:101320002F5F3F4F020F132F111D9FEFA1502091F0
:101330000501420F511DBD1550F4FA01EE0DFF1DC0
:101340009A01200F311F9193E217F307E1F7A330C1
:1013500068F72091050130E0BD15B8F4280F311D64
:10136000FA01E20FF31F6150681B862F2F5F3F4F7A
:10137000820F932F911D480F591F8191DF01119703
:10138000872B8C93E417F507C1F7DF91CF911F915D
:101390000F91FF90EF90DF9008952E238617A8F706
:1013A000A82FB0E0FA01EA0FFB1F6150681B1196ED
:1013B0006A0F7B2F711D460F571F8191DF01119717
:1013C000822B8C93E417F507C1F7DFCFA33008F029
:1013D000A1CFDBCF2091050130E0C0CF82E00E9499
:1013E000F10680EC0E940E0788E00E94F106089545
:1013F000CF93C82F82E00E94F10683E00E940E077F
:101400008C2F0E940E070E941207C82F88E00E94AE
:10141000F1068C2FCF910895CF93DF93D82FC62F4D
:1014200082E00E94F10682E00E940E078D2F0E944A
:101430000E078C2F0E940E0788E00E94F106DF91B4
:10144000CF9108950E94EE0960E88FE00E940C0A97
:1014500061E48AE20E940C0A61E989E20E940C0AB6
:1014600062E088E20E940C0A0895CF93813039F03F
:10147000A0F0823081F0833061F4C7E801C0C2E897
:1014800082E00E94F1068C2F0E940E0788E00E94E5
:10149000F106CF910895C4E8F3CFC1E8F1CFCF931F
:1014A00082E00E94F10680EA0E940E070E94120765
:1014B000C82F88E00E94F1068C2FCF9108951F93CA
:1014C000CF93DF93182FD62FC42F82E00E94F1060E
:1014D00085E00E940E07812F0E940E078D2F0E942B
:1014E0000E078C2F0E940E0788E00E94F106DF9104
:1014F000CF911F91089560E08FE00E940C0A8B98B5
:10150000939A85B7837F886085BF8BB780688BBFD0
:101510000895CF92DF92EF92FF920F931F93CF9394
:10152000DF937C0180E30E94F80980E40E94F809BF
:10153000D0E184FDD0E080E50E94F80984FFD0E28C
:10154000F70182818823D1F087010D5F1F4FC6E329
:10155000CD0F8DEF9FEF6C01CE18DF08F801619180
:101560008F018C2F0E940C0ACF5FF7012281C601E8
:10157000800F911F2817190609F084F7F7010081E1
:101580001181602F6770F0E26F9FB001112482E338
:101590008D0F0E940C0AB801769567957695679530
:1015A0007695679581E38D0F0E940C0AF7016281A1
:1015B00085E38D0F0E940C0A8D2F85958595859565
:1015C00085950E94350ADF91CF911F910F91FF9071
:1015D000EF90DF90CF9008958F929F92AF92BF923D
:1015E000CF92DF92EF92FF920F931F93CF93DF93EF
:1015F000CDB7DEB72B970FB6F894DEBF0FBECDBFC9
:101600006C011C821D821E821F82188619861A8612
:101610001B868CE20E94F80980FD6EC000E181FF0C
:101620005EC082E6800F0E94F809A82E81E6800F36
:101630000E94F80928E0829FC0011124B12CB694C1
:10164000A794B694A794B694A794B694A794B69486
:10165000A794A82AB92A85E6800F0E94F8098F70FE
:10166000882E89F016E6100F7E0184E0E80EF11C4A
:10167000982C910E812F0E94F809F70181937F0128
:101680001F5F1911F7CF02950F7061E070E002C083
:10169000660F771F0A95E2F740E08CE20E945F0A2E
:1016A000BA82A9828B828BE0FE013196D60101902D
:1016B0000D928A95E1F7C6012B960FB6F894DEBF1E
:1016C0000FBECDBFDF91CF911F910F91FF90EF9093
:1016D000DF90CF90BF90AF909F908F9008951A8227
:1016E000198288E08B838BE0FE013196D601019050
:1016F0000D928A95E1F7DFCF00E093CF1F920F9212
:101700000FB60F9211242F933F934F935F936F93D4
:101710007F938F939F93AF93BF93EF93FF93CF9359
:10172000DF93CDB7DEB72B97DEBFCDBFCE010196DD
:101730000E94EC0A8C811F928F9388EA92E09F931B
:101740008F930E940E0D0F900F900F900F902B967D
:101750000FB6F894DEBF0FBECDBFDF91CF91FF91E2
:10176000EF91BF91AF919F918F917F916F915F9119
:101770004F913F912F910F900FBE0F901F90189592
:101780008CE20E94F80983700895FC011082618345
:1017900020910801309109013383228380E1689F01
:1017A000B0011124260F371F30930901209308013F
:1017B00008950F931F93CF93DF93EC018A018881E3
:1017C00020E1829FC00111242A813B81820F931F57
:1017D0000E94BC0CE88120E1E29FC0011124EA8153
:1017E000FB81E80FF91F1787068788818F5F888341
:1017F000DF91CF911F910F910895DF92EF92FF92A9
:101800000F931F93CF93DF937C01D62F633008F49F
:10181000D3E0CDEFCD0FF701D0800C2F10E0862F55
:1018200090E0801B910B0196782F770F780F770F40
:101830006C1B962F990F960F6FE780E0990F0E940F
:1018400036098D2D90E0801B910B0B972CF00F2EFD
:10185000F7E0DF2EF02DDD0ECD15A0F4F0E1CF9FE7
:1018600080011124D0E0F70162817381600F711F44
:1018700084E09D2F0E948608CF5F005F1F4FDA5FD4
:10188000DC12F1CFDF91CF911F910F91FF90EF907C
:10189000DF90089520E1629FB0011124DC011296CF
:1018A000ED91FC91E60FF71F80818D3429F00684BD
:1018B000F785E02D09950895868597850895089503
:1018C0008F929F92AF92BF92CF92DF92EF92FF9250
:1018D000CF93DF93EC01688179818A819B816115C7
:1018E00071058105910521F464E279ED8BE597E0BE
:1018F0002DE133EF41E050E00E94EA1049015A0126
:101900009B01AC01A7EAB1E40E9409116B017C01C3
:10191000ACEEB4EFA50194010E941711DC01CB01DC
:101920008C0D9D1DAE1DBF1DB7FF03C00197A10902
:10193000B04888839983AA83BB839F77DF91CF9137
:10194000FF90EF90DF90CF90BF90AF909F908F90DF
:1019500008950E94600C08958AE091E00E94600C56
:101960000895B0E0A0E080930A0190930B01A0934A
:101970000C01B0930D010895FB01DC0101900D9263
:101980000020E1F708950F931F93CF93DF93009703
:1019900059F46115710541F4F0E0E0E0CF01DF9109
:1019A000CF911F910F9108958B01EC016EE070E0D3
:1019B00081E090E00E94FE0EFC01892B69F380E833
:1019C00083830115110571F01387028781E88383F2
:1019D0008091CF029091D002892B21F4F093D00214
:1019E000E093CF022097D1F2D187C08783818260B4
:1019F00083838091D1029091D202892B79F6F09362
:101A0000D202E093D1028091D3029091D402892B2B
:101A100029F6F093D402E093D302C0CFB0E0A0E067
:101A2000E4E1FDE00C942C11AE014B5F5F4FFA0135
:101A300061917191AF018091D1029091D2020E9487
:101A4000240DE2E00C944811ABE0B0E0EAE2FDE0E6
:101A50000C941C117C013B018A01FC011782168247
:101A6000838181FFC8C1CE0101965C01F70193819A
:101A7000F30193FD859193FF81913F01882309F440
:101A800053C1853239F493FD859193FF81913F01D4
:101A9000853229F4B70190E00E945C10E7CF912CC9
:101AA000212C312CFFE1F31538F08B3211F190F439
:101AB000803209F1833229F137FC3CC020ED280F38
:101AC0002A3050F536FE20C08AE0989E200D112461
:101AD000922E06C08D3291F0803371F7689430F801
:101AE000F30193FD859193FF81913F018111DACF3D
:101AF00021C0689431F8689432F8F2CF689433F8D2
:101B0000EFCF689434F8ECCFEAE02E9E200D11243C
:101B1000222E689435F8E4CF8E3229F436FC04C1C5
:101B2000689436F8DDCF8C3619F4689437F8D8CF3E
:101B30008836B1F2982F9F7D95549330E0F083362C
:101B4000A1F18337C1F1833509F063C02801F2E0C8
:101B50004F0E511CF801C080D180692D70E036FC19
:101B600002C06FEF7FEFC6010E943F104C016894E6
:101B700037F882010AC00C5F1F4FFFE3F983882406
:101B80008394912C6501E89437F833FE2DC0522CD4
:101B90008114910471F5552009F468CFB70180E2F2
:101BA00090E00E945C105A94F6CFF80180818983FE
:101BB0000E5F1F4FE4CF2801F2E04F0E511CF801D9
:101BC000C080D180692D70E036FC02C06FEF7FEFDE
:101BD000C6010E9451104C018201D5CFB70180E2AD
:101BE00090E00E945C102A942814190409F0B0F7C0
:101BF000CECFF60137FC859137FE81916F01B70199
:101C000090E00E945C1051105A94F1E08F1A9108F4
:101C1000BFCF843619F0893609F077C0F80137FE56
:101C20006BC060817181828193810C5F1F4FF32DA6
:101C3000FF763F2E97FF09C090958095709561952E
:101C40007F4F8F4F9F4F689437F82AE030E0A5010F
:101C50000E948C10C82ECA188C2C432C36FE0CC047
:101C6000E89440F8C91440F434FE05C032FC03C0C7
:101C7000F32DFE7E4F2E892C44FE95C0FE01EC0D07
:101C8000F11D8081803309F087C0242D297E422EEA
:101C9000842D8870582E43FC95C040FE8FC09C2C2C
:101CA000821418F42C0C922C981844FE91C0B701A1
:101CB00080E390E00E945C1042FE09C088E790E05B
:101CC00041FE02C088E590E0B7010E945C10C91493
:101CD00008F48AC0CA94D12C9FEFC91AD90ACA0C39
:101CE000DB1CF60182916F01B70190E00E945C104D
:101CF000AC14BD04B1F74FCF60817181072E000C89
:101D0000880B990B0E5F1F4F92CFD32CE894D4F819
:101D10002AE030E0853739F1232D297FD22E8F3606
:101D200001F148F48835A9F0F701868197812B9657
:101D3000E2E10C943811803749F08837A9F7D4FED6
:101D400002C06894D2F820E130E00DC06894D4F865
:101D5000F6CF34FE03C0822F8660D82E20E132E019
:101D600002C028E030E0F801D7FE0FC06081718129
:101D7000828193810C5F1F4FA5010E948C10C82E99
:101D8000CA183D2CE89437F867CF6081718190E0E4
:101D900080E00E5F1F4FF0CF42FC02C0839478CFEB
:101DA0008394839475CF842D867809F471CFF6CF10
:101DB000B70180E290E00E945C1083948214C0F32B
:101DC000512C73CF522C5818821408F46ECFF8CFD0
:101DD000842D867809F47BCF8BE241FE80E247FCBC
:101DE0008DE2B70190E071CFB70180E390E00E94EF
:101DF0005C109A946CCF8FEF9FEF99CF0F931F9346
:101E0000CF93DF93869F8001879F100D969F100DC3
:101E10001124C8010E941A0FEC01009729F0A801B3
:101E200070E060E00E944A10CE01DF91CF911F91D7
:101E30000F9108950F931F93CF93DF9382309105F5
:101E400010F482E090E0E091D702F091D80230E007
:101E500020E0B0E0A0E0309799F42115310509F4B5
:101E60004AC0281B390B24303105D8F58A819B8163
:101E70006115710589F1FB0193838283FE0111C015
:101E8000408151810281138148175907E0F04817BA
:101E9000590799F4109761F012960C9312971396C4
:101EA0001C933296CF01DF91CF911F910F9108952E
:101EB0000093D7021093D802F4CF2115310551F0C9
:101EC0004217530738F0A901DB019A01BD01DF0178
:101ED000F801C1CFEF01F9CF9093D8028093D702D8
:101EE000CDCFFE01E20FF31F819391932250310970
:101EF00039832883D7CF2091D5023091D602232B66
:101F000041F420911001309111013093D6022093B9
:101F1000D50220910E0130910F012115310541F4B8
:101F20002DB73EB74091120150911301241B350B80
:101F3000E091D502F091D602E217F307A0F42E1B30
:101F40003F0B2817390778F0AC014E5F5F4F24171D
:101F5000350748F04E0F5F1F5093D6024093D502CD
:101F6000819391939FCFF0E0E0E09CCFCF93DF93FC
:101F70000097E9F0FC01329713821282A091D702F8
:101F8000B091D802ED0130E020E01097A1F420815B
:101F90003181820F931F2091D5023091D6022817EC
:101FA000390709F061C0F093D602E093D502DF91C2
:101FB000CF910895EA01CE17DF07E8F54A815B81EA
:101FC0009E0141155105B1F7E901FB83EA8349916F
:101FD0005991C40FD51FEC17FD0761F480819181E1
:101FE0000296840F951FE9019983888382819381EA
:101FF0009B838A83F0E0E0E012968D919C91139789
:102000000097B9F52D913C911197CD010296820F61
:10201000931F2091D5023091D6022817390739F63F
:10202000309751F51092D8021092D702B093D60291
:10203000A093D502BCCFD383C28340815181840F4A
:10204000951FC817D90761F44E5F5F4F888199814A
:10205000480F591F518340838A819B8193838283D8
:102060002115310509F0B0CFF093D802E093D702E3
:102070009ECFFD01DC01C0CF13821282D7CFFC01BD
:102080000590615070400110D8F7809590958E0FA3
:102090009F1F0895DC0101C06D9341505040E0F74F
:1020A0000895FC016150704001900110D8F78095AF
:1020B00090958E0F9F1F08950F931F93CF93DF93DB
:1020C000182F092FEB018B8181FD09C01FEF0FEF46
:1020D000812F902FDF91CF911F910F91089582FF53
:1020E00014C02E813F818C819D81281739073CF4D3
:1020F000E881F981CF0101969983888310838E81CD
:102100009F8101969F838E83E3CFE885F985812F98
:102110000995892BA1F3DACFFA01AA27283051F1CA
:10212000203181F1E8946F936E7F6E5F7F4F8F4F08
:102130009F4FAF4FB1E03ED0B4E03CD0670F781F67
:10214000891F9A1FA11D680F791F8A1F911DA11D4C
:102150006A0F711D811D911DA11D20D009F4689485
:102160003F912AE0269F11243019305D3193DEF62D
:10217000CF010895462F4770405D4193B3E00FD0E3
:10218000C9F7F6CF462F4F70405D4A3318F0495DCE
:1021900031FD4052419302D0A9F7EACFB4E0A695B1
:1021A0009795879577956795BA95C9F700976105D3
:1021B000710508959B01AC010A2E06945795479529
:1021C00037952795BA95C9F7620F731F841F951F1E
:1021D000A01D0895052E97FB1EF400940E94011186
:1021E00057FD07D00E94531107FC03D04EF40C9406
:1021F000011150954095309521953F4F4F4F5F4FBE
:10220000089590958095709561957F4F8F4F9F4F62
:1022100008950E947511A59F900DB49F900DA49FE5
:10222000800D911D11240895B7FF0C9409110E948F
:102230000911821B930B08952F923F924F925F9248
:102240006F927F928F929F92AF92BF92CF92DF92C6
:10225000EF92FF920F931F93CF93DF93CDB7DEB72B
:10226000CA1BDB0B0FB6F894DEBF0FBECDBF0994BF
:102270002A88398848885F846E847D848C849B8416
:10228000AA84B984C884DF80EE80FD800C811B8124
:10229000AA81B981CE0FD11D0FB6F894DEBF0FBE53
:1022A000CDBFED010895A1E21A2EAA1BBB1BFD01B3
:1022B0000DC0AA1FBB1FEE1FFF1FA217B307E40725
:1022C000F50720F0A21BB30BE40BF50B661F771F7D
:1022D000881F991F1A9469F760957095809590955D
:1022E0009B01AC01BD01CF010895A29FB001B39F36
:1022F000C001A39F700D811D1124911DB29F700D0F
:0C230000811D1124911D0895F894FFCF59
:10230C007000040608800014001C0100000000008E
:10231C00D90220001F006164632076616C75653AF8
:10232C002025752C2025752C2025692C2025690D40
:10233C000A007370692076616C75653A2025692CEA
:10234C002025692C2025690D0A0048656C6C6F20CE
:10235C00576F726C64217C5F230048656C6C6F2036
:10236C00576F726C642121212025690D0A0053746A
:10237C00617274696E67205352414D207465737499
:10238C002E2E2E0A0D0057726974652070686173C9
:10239C0065206572726F723A206578745F72616D38
:1023AC005B2534645D203D2025303258202873682D
:1023BC006F756C642062652025303258290A0D0037
:1023CC0052657472696576616C2070686173652002
:1023DC006572726F723A206578745F72616D5B25FD
:1023EC0034645D203D2025303258202873686F7589
:1023FC006C642062652025303258290A0D00535236
:10240C00414D207465737420636F6D706C657465D9
:10241C00642077697468200A0D2534642065727213
:10242C006F727320696E20777269746520706861B1
:10243C00736520616E64200A0D2534642065727208
:10244C006F727320696E2072657472696576616C47
:10245C002070686173650A0D000A0D2564202575CE
:10246C000A0D002569004620746573744A6F790063
:10247C0046206F7074696F6E320046206F707469FD
:10248C006F6E330046206F7074696F6E3400462097
:10249C006F7074696F6E3500462074657374436990
:1024AC0072636C650025692025690A0D0063616CF7
:1024BC006962726174656420746F3A2025752C20F2
:0624CC0025750D0A000059
:00000001FF
