:100000000C9438000C944D000C944D000C944D0051
:100010000C944D000C944D000C944D000C944D002C
:100020000C944D000C944D000C944D000C944D001C
:100030000C944D000C944D000C944D000C944D000C
:100040000C944D000C944D000C944D000C944D00FC
:100050000C944D000C944D000C944D000C944D00EC
:100060000C944D000C944D000C944D000C944D00DC
:1000700011241FBECFEFD4E0DEBFCDBF11E0A0E062
:10008000B1E0E2E1F1E002C005900D92A230B107CB
:10009000D9F70E9463000C9487000C940000D09A5A
:1000A000D89A80E49DE0A3E0B0E00197A109B109EE
:1000B000E1F7D89880E49DE0A3E0B0E00197A109C2
:1000C000B109E1F7EDCF0E94710081E60E947C004A
:1000D00080E89AE1A6E0B0E00197A109B109E1F753
:1000E000F4CF8091010180BD8091000189B988E140
:1000F0008AB98EE880BD08955D9BFECF8CB90895C6
:100100005F9BFECF8CB108958BB180780895F894F1
:02011000FFCF1F
:020112001F00CC
:00000001FF
