:100000000C9438000C9455000C9455000C94550039
:100010000C9455000C9455000C9455000C9455000C
:100020000C9455000C9455000C9455000C945500FC
:100030000C9455000C9455000C9455000C945500EC
:100040000C9455000C9455000C9455000C945500DC
:100050000C9455000C9455000C9455000C945500CC
:100060000C9455000C9455000C9455000C945500BC
:1000700011241FBECFEFD4E0DEBFCDBF12E0A0E061
:10008000B1E0E8E0F2E102C005900D92AC32B107B8
:10009000D9F722E0ACE2B2E001C01D92AD33B20765
:1000A000E1F70E945B000C9402090C940000C19AD5
:1000B0000895C19808950E9459020E946A020E9400
:1000C00079020E94AD020E94C4020E943D0330E00A
:1000D00020E041E050E050C0FC01F595E795F59532
:1000E000E795F595E795F695FE2FEE27F795E795B9
:1000F000E20FF31FFC5EDC01A770BB27EA0102C020
:10010000CC0FDD1FAA95E2F7BC2FB095A081AB23E1
:10011000A08301968034910549F1DC019097AA9F54
:10012000F001AB9FF00DF00D1124E60FF71FE03941
:10013000F14094F6FC01F595E795F595E795F59571
:10014000E795F695FE2FEE27F795E795E20FF31F5B
:10015000FC5EDC01A770BB27EA0102C0CC0FDD1FEB
:10016000AA95E2F7A081AC2BA083D3CF2F5F3F4F9E
:100170002038310509F44CC0C90180549109889F89
:10018000B001899F700D700D112490E080E0C5CF03
:1001900001968034910559F1FC01B097EE9F9001D2
:1001A000EF9F300D300D1124260F371F213E3105F2
:1001B0007CF7FC01F595E795F595E795F595E795BD
:1001C000F695FE2FEE27F795E795E40FF51FFC5EF9
:1001D0009C0127703327ED0102C0CC0FDD1F2A954B
:1001E000E2F73C2F3095208123232083D1CF4F5F2E
:1001F0005F4F4038510589F0CA0180549109889FAA
:10020000B001899F700D700D112490E080E0C4CF83
:1002100050E040E0A1E0B0E0EFCF80E094E10E9448
:10022000800303C088E00E949A0280E492E4AFE079
:10023000B0E00197A109B109E1F7F4CFD09AD89ABB
:1002400080E49DE0A3E0B0E00197A109B109E1F7E6
:10025000D89880E49DE0A3E0B0E00197A109B1093E
:10026000E1F7EDCFC0E00CE011E001C0CF5F1F92DD
:10027000CF931F930F930E948C040F900F900F90B9
:100280000F9080E49DE0A3E0B0E00197A109B109DF
:10029000E1F7ECCFCF92DF92EF92FF920F931F9393
:1002A000CF93DF9380E291E09F938F930E948C0421
:1002B0000E9431046C010E9436040F900F90D0E030
:1002C000C0E010E000E00F2EF8E3EF2EF1E0FF2E8B
:1002D000F02D05C02196C1159CE0D907F1F00E94D0
:1002E0003104FE01FC5E80832081281799F3992751
:1002F0009F938F931F922F93DF93CF93FF92EF9251
:100300000E948C040F5F1F4F8DB79EB708960FB6E3
:10031000F8949EBF0FBE8DBFDDCFC6010E9436048C
:10032000D0E0C0E0F12CE12C0F2EF2E7CF2EF1E06F
:10033000DF2EF02D05C02196C1159CE0D907F1F004
:100340000E943104FE01FC5E20812817A1F3992749
:100350009F938F931F922F93DF93CF93DF92CF9230
:100360000E948C048FEFE81AF80A8DB79EB70896A2
:100370000FB6F8949EBF0FBE8DBFDDCFFF92EF92F8
:100380001F930F9380EB91E09F938F930E948C04B7
:100390000F900F900F900F900F900F90DF91CF91D3
:1003A0001F910F91FF90EF90DF90CF900895CBE0D9
:1003B000D2E00E94810290E080E00E949402182F17
:1003C000092F81E090E00E9494020F931F939F9366
:1003D0008F93DF93CF930E948C040F900F900F9018
:1003E0000F900F900F9080E49DE0A3E0B0E00197A4
:1003F000A109B109E1F7DDCF80E00E949A0285E012
:100400000E94B70290E080E00196803127E29207D7
:10041000D9F782E00E94B70281E00E94B70288E02B
:100420000E949A02C0E004E212E00E94B003CF5F93
:100430000E94DD031F92CF931F928F931F930F9300
:100440000E948C040F900F900F900F900F900F90C0
:1004500080E49DE0A3E0B0E00197A109B109E1F7D4
:10046000E4CFCF93DF930E943D0360E082E00E94DF
:100470005D038FEF0E94B70280E00E94B70280E424
:1004800092E4AFE0B0E00197A109B109E1F7CEE74E
:10049000D0E08FEF0E94B7022197D9F7DF91CF917B
:1004A00008955D9BFECF8CB908955F9BFECF8CB104
:1004B000089510BC8FE189B988E18AB98EE880BDC2
:1004C00065E572E081E592E00E94410408958BB1F8
:1004D0008078089585B7806885BF80B7806280BFC7
:1004E0000895FB01FC5E808308959C5EFC01808181
:1004F00008958D9A83E48FBD89E18EBD1BBC1ABC23
:1005000008951092001084E690E00197F1F7A0E0C2
:10051000B0E18C91ECE2F2E080838C9181838C914C
:1005200082838C9183830895E82FF0E0E45DFD4F92
:100530008081089524E030E0A90102C0440F551FD6
:100540008A95E2F7CA0128B39CE19827922B98BBC1
:1005500098B38095892388BB089587B3806A87BB49
:10056000BE9887B38C6187BB81E58DB908958FB93B
:10057000779BFECF08951FB8779BFECF8FB108956C
:10058000C19A0895C1980895B99A0E94C20281E063
:100590000E949A028EEA0E94B70281EA0E94B70284
:1005A0008AED0E94B70282E10E94B70288EC0E94A5
:1005B000B70288EA0E94B7028FE30E94B70285ED76
:1005C0000E94B70280E80E94B70281E80E94B70249
:1005D00080E50E94B70289ED0E94B70281E20E9485
:1005E000B70280E20E94B70282E00E94B7028BED60
:1005F0000E94B70280E30E94B7028DEA0E94B70210
:1006000080E00E94B70284EA0E94B70286EA0E9454
:10061000B7028FEA0E94B70281E80E94B7028FEF0B
:100620000E94B702089581E00E949A020E94C202CD
:1006300080E20E94B70280E00E94B70282E20E943C
:10064000B70280E00E94B70287E00E94B7020E94D2
:10065000C00208950F931F93CF930E94130300E0ED
:1006600014E0C0EF8C2F0E94B702C0950150110911
:10067000C9F7CF911F910F910895CF93DF930E94F7
:100680001303C0E0D4E080E00E94B7022197D9F7BD
:10069000DF91CF910895CF93C82F81E00E949A02F5
:1006A0000E94C202C11105C086EA0E94B702CF9122
:1006B000089587EA0E94B702FACFCF93DF93D82F2D
:1006C000C62F81E00E949A020E94C20280E20E942C
:1006D000B70282E00E94B7028D2F8F70806B0E945C
:1006E000B7028C2F8F700E94B7028C2F82958F706B
:1006F00080610E94B7020E94C002DF91CF910895ED
:10070000CF92DF92EF92FF920F931F93CF93DF93DD
:100710007C010E94130367018CEFD81A06C088E0A1
:10072000E80EF11CCE14DF0459F0E7018701085FE1
:100730001F4F89910E94B7020C171D07D1F7EFCF09
:10074000DF91CF911F910F91FF90EF90DF90CF90AD
:10075000089590E080E0019681329105E1F70895D7
:10076000CF93DF9380E00E949A0284E00E94B70258
:100770000E94BB02C0E3D2E088830E94BB0289834F
:100780000E94BB028A8381E00E949A02DF91CF918E
:100790000895E82FE695E695E695F0E0E05DFD4FDB
:1007A000877021E030E0A90102C0440F551F8A95EF
:1007B000E2F7CA01908189230895E0E3F2E08081A5
:1007C0009181890F9281890F08958F929F92AF92A4
:1007D000BF92CF92DF92EF92FF92CF93DF93EC0123
:1007E000688179818A819B816115710581059105F7
:1007F00021F464E279ED8BE597E02DE133EF41E000
:1008000050E00E94680849015A019B01AC01A7EA27
:10081000B1E40E9487086B017C01ACEEB4EFA50146
:1008200094010E949508DC01CB018C0D9D1DAE1D2D
:10083000BF1DB7FF03C00197A109B0488883998302
:10084000AA83BB839F77DF91CF91FF90EF90DF90DA
:10085000CF90BF90AF909F908F9008950E94E50336
:10086000089580E091E00E94E5030895B0E0A0E0E3
:100870008093000190930101A0930201B0930301C2
:1008800008950F931F93CF93DF93009759F4611549
:10089000710541F4F0E0E0E0CF01DF91CF911F91CD
:1008A0000F9108958B01EC016EE070E081E090E023
:1008B0000E947C06FC01892B69F380E88383011583
:1008C000110571F01387028781E8838380913302D9
:1008D00090913402892B21F4F0933402E093330297
:1008E0002097D1F2D187C0878381826083838091F2
:1008F000350290913602892B79F6F0933602E09317
:1009000035028091370290913802892B29F6F093B5
:100910003802E0933702C0CFB0E0A0E0E2E9F4E0B3
:100920000C94AA08AE014B5F5F4FFA01619171917F
:10093000AF0180913502909136020E94A204E2E05C
:100940000C94C608ABE0B0E0E8EAF4E00C949A0836
:100950007C013B018A01FC0117821682838181FFA1
:10096000C8C1CE0101965C01F7019381F30193FDAB
:10097000859193FF81913F01882309F453C185320A
:1009800039F493FD859193FF81913F01853229F4DC
:10099000B70190E00E94DA07E7CF912C212C312C8F
:1009A000FFE1F31538F08B3211F190F4803209F148
:1009B000833229F137FC3CC020ED280F2A3050F556
:1009C00036FE20C08AE0989E200D1124922E06C08B
:1009D0008D3291F0803371F7689430F8F30193FD14
:1009E000859193FF81913F018111DACF21C06894F5
:1009F00031F8689432F8F2CF689433F8EFCF689406
:100A000034F8ECCFEAE02E9E200D1124222E6894BB
:100A100035F8E4CF8E3229F436FC04C1689436F8F8
:100A2000DDCF8C3619F4689437F8D8CF8836B1F218
:100A3000982F9F7D95549330E0F08336A1F1833752
:100A4000C1F1833509F063C02801F2E04F0E511C5B
:100A5000F801C080D180692D70E036FC02C06FEFD4
:100A60007FEFC6010E94BD074C01689437F88201F0
:100A70000AC00C5F1F4FFFE3F98388248394912CF5
:100A80006501E89437F833FE2DC0522C811491048F
:100A900071F5552009F468CFB70180E290E00E941B
:100AA000DA075A94F6CFF801808189830E5F1F4FD1
:100AB000E4CF2801F2E04F0E511CF801C080D18034
:100AC000692D70E036FC02C06FEF7FEFC6010E9417
:100AD000CF074C018201D5CFB70180E290E00E94A0
:100AE000DA072A942814190409F0B0F7CECFF601DA
:100AF00037FC859137FE81916F01B70190E00E942C
:100B0000DA0751105A94F1E08F1A9108BFCF84365A
:100B100019F0893609F077C0F80137FE6BC06081A3
:100B20007181828193810C5F1F4FF32DFF763F2EE1
:100B300097FF09C090958095709561957F4F8F4F75
:100B40009F4F689437F82AE030E0A5010E940A0818
:100B5000C82ECA188C2C432C36FE0CC0E89440F8E2
:100B6000C91440F434FE05C032FC03C0F32DFE7EF0
:100B70004F2E892C44FE95C0FE01EC0DF11D8081A5
:100B8000803309F087C0242D297E422E842D887061
:100B9000582E43FC95C040FE8FC09C2C821418F444
:100BA0002C0C922C981844FE91C0B70180E390E081
:100BB0000E94DA0742FE09C088E790E041FE02C0C9
:100BC00088E590E0B7010E94DA07C91408F48AC0EA
:100BD000CA94D12C9FEFC91AD90ACA0CDB1CF601A2
:100BE00082916F01B70190E00E94DA07AC14BD0456
:100BF000B1F74FCF60817181072E000C880B990BE4
:100C00000E5F1F4F92CFD32CE894D4F82AE030E047
:100C1000853739F1232D297FD22E8F3601F148F403
:100C20008835A9F0F701868197812B96E2E10C9433
:100C3000B608803749F08837A9F7D4FE02C0689417
:100C4000D2F820E130E00DC06894D4F8F6CF34FE3D
:100C500003C0822F8660D82E20E132E002C028E057
:100C600030E0F801D7FE0FC06081718182819381ED
:100C70000C5F1F4FA5010E940A08C82ECA183D2C00
:100C8000E89437F867CF6081718190E080E00E5F73
:100C90001F4FF0CF42FC02C0839478CF839483949B
:100CA00075CF842D867809F471CFF6CFB70180E235
:100CB00090E00E94DA0783948214C0F3512C73CF22
:100CC000522C5818821408F46ECFF8CF842D8678F1
:100CD00009F47BCF8BE241FE80E247FC8DE2B70155
:100CE00090E071CFB70180E390E00E94DA079A9418
:100CF0006CCF8FEF9FEF99CF0F931F93CF93DF931D
:100D0000869F8001879F100D969F100D1124C801AA
:100D10000E949806EC01009729F0A80170E060E0BD
:100D20000E94C807CE01DF91CF911F910F910895C6
:100D30000F931F93CF93DF938230910510F482E0DD
:100D400090E0E0913B02F0913C0230E020E0B0E026
:100D5000A0E0309799F42115310509F44AC0281B09
:100D6000390B24303105D8F58A819B8161157105D5
:100D700089F1FB0193838283FE0111C0408151817F
:100D80000281138148175907E0F04817590799F471
:100D9000109761F012960C93129713961C9332964B
:100DA000CF01DF91CF911F910F91089500933B02E6
:100DB00010933C02F4CF2115310551F0421753072F
:100DC00038F0A901DB019A01BD01DF01F801C1CFB3
:100DD000EF01F9CF90933C0280933B02CDCFFE010F
:100DE000E20FF31F819391932250310939832883B5
:100DF000D7CF2091390230913A02232B41F4209130
:100E000006013091070130933A0220933902209174
:100E10000401309105012115310541F42DB73EB78C
:100E20004091080150910901241B350BE0913902D2
:100E3000F0913A02E217F307A0F42E1B3F0B28179C
:100E4000390778F0AC014E5F5F4F2417350748F043
:100E50004E0F5F1F50933A02409339028193919352
:100E60009FCFF0E0E0E09CCFCF93DF930097E9F0D5
:100E7000FC01329713821282A0913B02B0913C0296
:100E8000ED0130E020E01097A1F420813181820F44
:100E9000931F2091390230913A022817390709F03F
:100EA00061C0F0933A02E0933902DF91CF91089547
:100EB000EA01CE17DF07E8F54A815B819E01411503
:100EC0005105B1F7E901FB83EA8349915991C40FB8
:100ED000D51FEC17FD0761F4808191810296840F84
:100EE000951FE90199838883828193819B838A83FB
:100EF000F0E0E0E012968D919C9113970097B9F580
:100F00002D913C911197CD010296820F931F209154
:100F1000390230913A022817390739F6309751F5DE
:100F200010923C0210923B02B0933A02A093390215
:100F3000BCCFD383C28340815181840F951FC817D2
:100F4000D90761F44E5F5F4F88819981480F591F1F
:100F5000518340838A819B8193838283211531054C
:100F600009F0B0CFF0933C02E0933B029ECFFD012D
:100F7000DC01C0CF13821282D7CFFC0105906150F3
:100F800070400110D8F7809590958E0F9F1F08959F
:100F9000DC0101C06D9341505040E0F70895FC0121
:100FA0006150704001900110D8F7809590958E0F98
:100FB0009F1F08950F931F93CF93DF93182F092F2F
:100FC000EB018B8181FD09C01FEF0FEF812F902F67
:100FD000DF91CF911F910F91089582FF14C02E8150
:100FE0003F818C819D81281739073CF4E881F98184
:100FF000CF0101969983888310838E819F8101960A
:101000009F838E83E3CFE885F985812F0995892B0E
:10101000A1F3DACFFA01AA27283051F1203181F16A
:10102000E8946F936E7F6E5F7F4F8F4F9F4FAF4FF0
:10103000B1E03ED0B4E03CD0670F781F891F9A1F03
:10104000A11D680F791F8A1F911DA11D6A0F711DB7
:10105000811D911DA11D20D009F468943F912AE0C3
:10106000269F11243019305D3193DEF6CF010895AB
:10107000462F4770405D4193B3E00FD0C9F7F6CFDC
:10108000462F4F70405D4A3318F0495D31FD4052A4
:10109000419302D0A9F7EACFB4E0A695979587953A
:1010A00077956795BA95C9F7009761057105089519
:1010B0009B01AC010A2E06945795479537952795C5
:1010C000BA95C9F7620F731F841F951FA01D08955D
:1010D000052E97FB1EF400940E947F0857FD07D051
:1010E0000E94D10807FC03D04EF40C947F08509561
:1010F0004095309521953F4F4F4F5F4F0895909504
:101100008095709561957F4F8F4F9F4F08950E94F6
:10111000F308A59F900DB49F900DA49F800D911D85
:1011200011240895B7FF0C9487080E948708821B3A
:10113000930B08952F923F924F925F926F927F92FE
:101140008F929F92AF92BF92CF92DF92EF92FF92D7
:101150000F931F93CF93DF93CDB7DEB7CA1BDB0B83
:101160000FB6F894DEBF0FBECDBF09942A88398828
:1011700048885F846E847D848C849B84AA84B9842F
:10118000C884DF80EE80FD800C811B81AA81B9813B
:10119000CE0FD11D0FB6F894DEBF0FBECDBFED014F
:1011A0000895A1E21A2EAA1BBB1BFD010DC0AA1FA8
:1011B000BB1FEE1FFF1FA217B307E407F50720F0C0
:1011C000A21BB30BE40BF50B661F771F881F991F3B
:1011D0001A9469F760957095809590959B01AC0184
:1011E000BD01CF010895A29FB001B39FC001A39F8D
:1011F000700D811D1124911DB29F700D811D112450
:08120000911D0895F894FFCF41
:101208000100000000003D0220001F0048656C6CD2
:101218006F20576F726C642121212025690D0A0007
:101228005374617274696E67205352414D2074651E
:1012380073742E2E2E0A0D0057726974652070681B
:10124800617365206572726F723A206578745F7297
:10125800616D5B2534645D203D202530325820289F
:1012680073686F756C642062652025303258290ACE
:101278000D0052657472696576616C2070686173DF
:1012880065206572726F723A206578745F72616D5D
:101298005B2534645D203D20253032582028736852
:1012A8006F756C642062652025303258290A0D005C
:1012B8005352414D207465737420636F6D706C6573
:1012C8007465642077697468200A0D253464206584
:1012D80072726F727320696E2077726974652070FC
:1012E8006861736520616E64200A0D253464206589
:1012F80072726F727320696E207265747269657696
:10130800616C2070686173650A0D006A6F79737487
:1013180069636B2076616C75653A2025692C2025F8
:0C132800690D0A0025642025750A0D00DF
:00000001FF
