:100000000C9438000C9442000C9442000C94420072
:100010000C9442000C9442000C9442000C94420058
:100020000C9442000C9442000C9442000C94420048
:100030000C9442000C9442000C9442000C94420038
:100040000C9442000C9442000C9442000C94420028
:100050000C9442000C9442000C9442000C94420018
:100060000C9442000C9442000C9442000C94420008
:1000700011241FBECFEFD4E0DEBFCDBF0E945800D9
:100080000C945A000C940000D09AD89A80EA96E812
:10009000A1E0B0E00197A109B109E1F7D89880EAA1
:1000A00096E8A1E0B0E00197A109B109E1F7EDCF31
:0800B0000E944400F894FFCF08
:00000001FF
